:020000040800F2
:1000000000200020F91D0008AD180008AF180008F6
:1000100000000000000000000000000000000000E0
:10002000000000000000000000000000B1180008FF
:100030000000000000000000B3180008B518000818
:10004000491E000800000000491E0008491E000863
:10005000491E0008491E0008491E0008491E0008E4
:1000600000000000BD180008491E0008491E0008D5
:10007000CD180008491E0008491E000800000000B5
:10008000491E00080000000000000000491E000892
:1000900000000000DD180008491E0008ED180008E7
:1000A000491E0008491E0008491E0008491E000894
:0800B000491E000800000000D9
:1000B80010B5064C2378002B07D1054B002B02D036
:1000C800044800E000BF0123237010BD8000002019
:1000D80000000000E4430008044B10B5002B03D0D7
:1000E8000349044800E000BF10BDC04600000000FE
:1000F80084000020E4430008002243088B4274D3A4
:1001080003098B425FD3030A8B4244D3030B8B4210
:1001180028D3030C8B420DD3FF22090212BA030C19
:100128008B4202D31212090265D0030B8B4219D3FA
:1001380000E0090AC30B8B4201D3CB03C01A52411A
:10014800830B8B4201D38B03C01A5241430B8B4262
:1001580001D34B03C01A5241030B8B4201D30B034B
:10016800C01A5241C30A8B4201D3CB02C01A524172
:10017800830A8B4201D38B02C01A5241430A8B4235
:1001880001D34B02C01A5241030A8B4201D30B021E
:10019800C01A5241CDD2C3098B4201D3CB01C01A38
:1001A800524183098B4201D38B01C01A5241430942
:1001B8008B4201D34B01C01A524103098B4201D330
:1001C8000B01C01A5241C3088B4201D3CB00C01A9D
:1001D800524183088B4201D38B00C01A5241430815
:1001E8008B4201D34B00C01A5241411A00D201463A
:1001F800524110467047FFE701B5002000F0F0F8C3
:1002080002BDC0460029F7D076E7704703460B4386
:100218007FD4002243088B4274D303098B425FD3F7
:10022800030A8B4244D3030B8B4228D3030C8B4223
:100238000DD3FF22090212BA030C8B4202D3121209
:10024800090265D0030B8B4219D300E0090AC30BDE
:100258008B4201D3CB03C01A5241830B8B4201D38B
:100268008B03C01A5241430B8B4201D34B03C01A74
:100278005241030B8B4201D30B03C01A5241C30AEC
:100288008B4201D3CB02C01A5241830A8B4201D35D
:100298008B02C01A5241430A8B4201D34B02C01A47
:1002A8005241030A8B4201D30B02C01A5241CDD2EC
:1002B800C3098B4201D3CB01C01A524183098B4237
:1002C80001D38B01C01A524143098B4201D34B0120
:1002D800C01A524103098B4201D30B01C01A524183
:1002E800C3088B4201D3CB00C01A524183088B420A
:1002F80001D38B00C01A524143088B4201D34B00F3
:10030800C01A5241411A00D2014652411046704764
:100318005DE0CA0F00D04942031000D34042534069
:1003280000229C4603098B422DD3030A8B4212D329
:10033800FC22890112BA030A8B420CD3890192115B
:100348008B4208D3890192118B4204D389013AD098
:10035800921100E08909C3098B4201D3CB01C01A6D
:10036800524183098B4201D38B01C01A5241430980
:100378008B4201D34B01C01A524103098B4201D36E
:100388000B01C01A5241C3088B4201D3CB00C01ADB
:10039800524183088B4201D38B00C01A5241D9D2F3
:1003A80043088B4201D34B00C01A5241411A00D274
:1003B8000146634652415B10104601D34042002B70
:1003C80000D54942704763465B1000D3404201B5EF
:1003D800002000F005F802BD0029F8D016E77047A4
:1003E8007047C0468446081C6146FFE71FB500F009
:1003F800A7F8002801D40021C8421FBD10B500F09D
:100408002BF84042013010BD10B500F099F80028D3
:1004180001DB002010BD012010BDC04610B500F062
:100428008FF8002801DD002010BD012010BDC04656
:1004380010B500F039F8002801DC002010BD0120BB
:1004480010BDC04610B500F02FF8002801DA0020D2
:1004580010BD012010BDC04670B542004E024C00D0
:1004680045026D0A120EC30F760A240EC90FFF2A21
:100478000FD0FF2C11D00120A24200D070BDB54290
:10048800FCD18B420DD0002AF8D12800451EA84186
:10049800F4E70120002DF1D1EBE70120002EEDD18A
:1004A800E9E70020EAE7C046F0B5420046024D02FF
:1004B8004C00C30F760A120E6D0A240EC80FFF2ACD
:1004C8001FD0FF2C10D0002A1FD171427141002C7F
:1004D80001D1002D1ED000290ED183421ED0022149
:1004E800581E08400138F0BD002D26D1002AF4D14D
:1004F800714271410029F0D00028F4D10120404216
:10050800F1E7002E19D1FF2CEED0002CE5D1002DFB
:10051800E3D1E4E70020002EE5D0E0E7A24205DCC5
:10052800EADBAE4202D8E7D30020DCE74142414192
:100538004842022108400138D5E702204042D2E76C
:10054800F0B5420046024D024C00C30F760A120E67
:100558006D0A240EC80FFF2A0DD0FF2C0FD0002AD9
:1005680023D171427141002C0FD1002D0DD10020F3
:10057800002E14D00DE0002E10D1FF2C15D1002D27
:100588000CD1002A03D171427141002908D183425C
:1005980010D00221581E0840013800E00220F0BDAA
:1005A8000028FCD101204042F9E7002CEFD1002DB2
:1005B800EDD1EEE7A24205DCF2DBAE4202D8EFD382
:1005C8000020ECE7414241414842022108400138FD
:1005D800E5E7C04641024200C30F490A0020120E57
:1005E8007E2A03D99D2A02D9094A98187047802083
:1005F80000040143952A07DC9620821AD14048421C
:10060800002BF3D10800F1E7963A9140F7E7C0468E
:10061800FFFFFF7F70B5002813D0C317C5185D40D2
:10062800C40F280000F03CF89E2301001B1A962BEB
:100638000FDC082801DD08398D406D026D0AD8B23B
:1006480002E0002400200025C0052843E4072043D9
:1006580070BD992B0BDD05222E00121AD640020020
:100668001B3295402800451EA84135000543052941
:1006780001DD4A1F95402A00084E3240680709D01C
:100688000F202840042805D00432500102D59F23AA
:1006980032405B1A9201550AD8B2D5E7FFFFFFFB3B
:1006A8001C2101231B04984201D3000C10391B0A9A
:1006B800984201D3000A08391B09984201D300095E
:1006C800043902A2105C40187047C04604030202B5
:1006D8000101010100000000000000000122014B9F
:1006E8001A707047A600002010B500F0FDFD10BD7F
:1006F80010B50521034A044800F0DEFD034801F067
:10070800D5FA10BDE50600089C000020F106000897
:10071800F0B5002489B004ABC44DC54EDF1CDC80A5
:1007280005AB1C70280004AB069607945C713C70FE
:1007380000F0D6FC0396A04207D0280000F0E5FCA4
:10074800BC4BBD4A19881C801180BC4C2378002BF7
:1007580000D182E06A21380000F0D6FA3B78AA2B53
:1007680000D07CE06921380000F0CEFA3B78013BEC
:10077800022B11D804AB6721981D00F0D3FA04AB03
:10078800AF4ADB886A2113603B783800013B13725B
:1007980000233B7000F0EAFA0023A64923700A8878
:1007A800A84D01320A80A84AA84E12883B7054000E
:1007B8000192A74AA418A74A0092A74AAA4200D0C1
:1007C80079E004AAD61C002B01D005233370019BC5
:1007D8009D4A01339BB2272B00D97FE013809F4BA2
:1007E8009F481B885843994B5988FFF785FC9D4BB8
:1007F8009D4CC2189D4B9A4200D8208004AB981D8E
:1008080023886521038000F0BFFA994B1B88009369
:10081800984B1D88009BAB4262D08C4B20889B88EC
:100828008F495843FFF768FC431B64205843009BDB
:10083800591BFFF7EBFC03001E3305A86421037066
:1008480000F094FA00233370307804284AD9002342
:10085800337033780093022B4DD909B0F0BD552B76
:1008680000D099E76921380000F04EFA387801384D
:10087800C0B2022800D98FE70025039B38704000DA
:100888007D49C0B20693079500F0F2FA0798FFF782
:10089800C1FE011C387840000130C0B200F0E8FA0F
:1008A8006A2138003D7000F061FA012304AA6B2127
:1008B8005371501D6EE7009B2A681B8828219818E1
:1008C80022882380801A01C5FFF716FC009B308020
:1008D800023300935034012302366EE700237DE78C
:1008E800664BAAE7594B4000C1B2181800F04CFA01
:1008F80033780133A7E7009A614B9B5C534A5B004E
:100908009B5A594A10885843009B0013002B6FD1FB
:10091800142143335843FFF779FC494B00991A7A5D
:1009280004008A423DD1574A5860127A8A4271D1EE
:10093800544A196812680191881A521AC82A01DCA7
:10094800C82859DD039B4F4D58436B68E11AFFF7E0
:100958005DFC4D49029006906043FFF757FC019BF0
:10096800C01807900298FFF755FE009B011C5B001A
:10097800D8B200F07DFA0798FFF74CFE011C3878D2
:1009880040000130C0B200F073FA04AB581D0123D7
:100998006B21037000F0EAF964232B726422284B60
:1009A8001A72307806A94000C0B200F053FA002845
:1009B8000FD1307807A940000130C0B200F04AFAE0
:1009C800002806D106981A496043FFF71FFC079BC9
:1009D800C41804AB981DE3433178DB17053149008F
:1009E8001C40C9B2048000F0CFF9337801332FE7F7
:1009F80064230E2158438EE7224A23CB23C20223C5
:100A080004AA501D6B21537100F0B0F964231D4AEC
:100A18001372C3E71B4D07CB07C5002304AA6B213C
:100A2800501D537100F0A2F9B8E7C046000000203D
:100A3800A0860100C4000020C6000020A6000020F7
:100A4800A8000020A0020020B4000020040100201B
:100A58000E0100209C000020B4020020AA75FF1F90
:100A6800B80B0000ABF4FFFF080000208203000071
:100A7800CA75FF1FA875FF1F0050C347FF7F0000FE
:100A880010440008B80000206079FEFF10B501F09E
:100A980027F910BDF7B56A46002301AE8548941DB5
:100AA800971CD51C338023803B702B7000F018FBFB
:100AB800002800D1ACE07F4800F027FB192128006E
:100AC80000F022F92B78012B05D9012319212800E0
:100AD8002B7000F04BF9287801F0C0F82B78002B28
:100AE80000D096E01021300000F01CF9724B3288DB
:100AF8009A4204D910213000338000F045F9FA23D6
:100B080032881B019A4204D210213000338000F051
:100B18003BF96421338869485843694B1B8859431A
:100B2800FFF774FB80B201F0F5F81221300000F0F5
:100B3800F9F8644B32889A4204D912213000338084
:100B480000F022F9502133885F48FF3158435C4B4D
:100B58001B885943FFF75AFB80B201F0F1F81421C2
:100B6800200000F0F1F8594B0021625E9A4204DA45
:100B780014212000238000F019F9FA230021625E75
:100B88009B009A4204DD14212000238000F00EF916
:100B98000023E05E01F00AF91821380000F0B4F8EB
:100BA8001621280000F0B0F82A78002A11D0042A6B
:100BB80009D80123013A93403A78182113433800A1
:100BC8003B7000F0D3F80023162128002B7000F0AA
:100BD800CDF81721280000F097F82B78002B11D0BA
:100BE800042B09D80122013B9A403B7818219343F2
:100BF80038003B7000F0BAF80023172128002B704A
:100C080000F0B4F8002301242B702878032843D976
:100C1800F7BD1A21200000F097F8AF230021625E8B
:100C2800DB009A4204DD1A212000238000F0BEF880
:100C38000022A35E264A934204DA1A212000228069
:100C480000F0B4F8234B21880020C91889B23180FC
:100C580001F08CF81C21200000F076F8AF23002169
:100C6800625EDB009A4204DD1C212000238000F034
:100C78009DF80022A35E164A934204DA1C21200044
:100C8800228000F093F82188124B0120C91889B2FC
:100C9800318001F06BF862E73B780341190021408D
:100CA800234200D0210000F069FC2B7801332B701F
:100CB800ABE7C0460C000020204E0000A236000022
:100CC80008000020102700003C86010018FCFFFFE8
:100CD80088FAFFFFB80B000000221100094BD0185A
:100CE800013201707C2AFAD118007A3A7830027001
:100CF80018007930017019007A310A707B3302329A
:100D08001A707047B5020020030000207A2906D81F
:100D1800181E04D0024A525C1A7062B6012070474D
:100D2800B5020020002310B5792908D8031E06D083
:100D3800044B0222C91803F03FFB62B601231800D6
:100D480010BDC046B5020020002310B5792908D887
:100D5800031E06D0044B0222C91803F02DFB62B60D
:100D68000123180010BDC046B50200200300002072
:100D78007A2906D8181E04D01A78024B5A5462B63B
:100D880001207047B5020020030010B50020792922
:100D980009D8181E07D0044802220818190003F0C1
:100DA8000BFB62B6012010BDB5020020030010B590
:100DB8000020792909D8181E07D0044802220818EB
:100DC800190003F0F9FA62B6012010BDB50200203F
:100DD800F7B550211C4800F0D1FA1C4C05005822E8
:100DE8002000194903F0E8FA236DAB4217D000231D
:100DF800174A9958E1500433502BFAD1502120005A
:100E080000F0BCFA0A236365FA239B002065582288
:100E18000093210001230C4800F0D0FAF7BD00230D
:100E28002200190001260A4D1068013004D15859D2
:100E3800471C01D03100106004330432502BF3D129
:100E48000029EBD0DAE7C046007800083403002018
:100E58001444000803000120132B06D8034A9B0002
:100E68009B585A1C01D000200B60704734030020A7
:100E7800F8B507000D1C0120132F18D80C49281CA1
:100E8800FFF7BCFA002800D000250A4EBF00B85969
:100E9800FFF7C0FB291CFFF7B1FA002806D1012291
:100EA800054B281C1A70FFF795FBF0510020F8BD80
:100EB800000080BF34030020C800002073B5104C28
:100EC800200000F00DF9002819D0FA26B6003100EC
:100ED800200000F0F7F80B4D2B78002B0FD00A4CB0
:100EE8005021200000F04AFA0123206558222100F1
:100EF8000648009600F062FA002800D1287073BDF9
:100F080014000020C80000203403002000780008E6
:100F18000A21124B12481970124B9A6802409A60C3
:100F28009A68D20AD2020A439A6080229968120209
:100F38000A439A60082219680A431A60102219683D
:100F48000A431A60802219680A431A602022196825
:100F58000A431A600022044B1A607047C900002037
:100F6800FF7FFFFF00540040CC000020012206480C
:100F780010B503689343036003F098F900F022FB6F
:100F8800FFF7C6FF10BDC04600540040474B08217C
:100F9800986910B504001A000C40084216D0FF24C6
:100FA8009A694348520C00785200224090423CD142
:100FB8000020404A10609A69D2032DD5DA6911439E
:100FC8000222D96119680A431A6010BD0420996980
:100FD80001422ED110219C690C4245D1996989079B
:100FE8004CD42021986908424ED19A69D207ECD591
:100FF8008022D96952000A43DA618022D969D20075
:101008000A43DA612B4B1A6801321A601B68142BE9
:10101800DBD9FFF7ABFFD8E7DA691143D9610121C2
:10102800254A117019680422CDE7DA691143D9619C
:10103800CBE72149214A0878002807D00C705B6A61
:10104800DBB213701378AA2B08D1FEE71178586A1F
:101058001B4B585413780133DBB2137013787B2B76
:10106800B3D97B231370B0E7DA691143D961022140
:101078001A688A431A601A688243A5E70F4A10481B
:101088001178415C9962E5E7DB6919430123D16175
:101098009169194200D19361022113688B4313604F
:1010A800136849188B4313608FE7C046005400400B
:1010B800C9000020CC000020D0000020CA00002079
:1010C800B502002070B504000D00002807D000F01C
:1010D80001FF65602060002801D10123236070BDF5
:1010E80010B5041E10D00020236883420CD000F0F5
:1010F800F1FE2268831A824201D9D3431B180020CB
:10110800626893424041C0B210BD10B5041E0AD0B7
:101118004368002B02D000F0DDFE20602368002B1E
:1011280001D10133236010BD30B585B00C220021F8
:1011380001A803F04AF92E4C2E4B2F4A2360802336
:1011480001251B062261082263600023626162197F
:10115800D37722002C321570802252012263062296
:101168006263220020003C322383A360E360A376FD
:10117800E5616362A3621370E36400F0B5FE0028C2
:1011880001D000F075FB200001A90195029501F03E
:10119800E5F8002801D000F06BFB184B200001A9EE
:1011A800019301F0DBF8002801D000F061FB144B3B
:1011B800200001A9019301F0D1F8002801D000F026
:1011C80057FB104B200001A9019301F0C7F8002834
:1011D80001D000F04DFB0C4B200001A9019301F058
:1011E800BDF8002801D000F043FB05B030BDC04673
:1011F8008C0300200024014004000080200000141B
:1012080000000140001000B0002000B470B50500D7
:1012180088B01422002103A803F0D7F8214B2A68CC
:101228009A423DD18020204B4003196C002601438F
:10123800196401211A6C02400192019A5A6BA0208C
:101248000A435A635B6BC0050B400293029B174B22
:1012580003A9039303230596049301F019FE144C84
:10126800144B20002360052363607B3323618033A4
:1012780063618023DB00A660E660A361E661266205
:1012880001F02AFCB04201D000F0F2FA0C20002252
:1012980003212C65A56201F0C9FA0C2001F0F0FACF
:1012A80008B070BD00240140001002402110000069
:1012B800F003002008000240084B10B59A60002295
:1012C8001860074819711A7301F05EFA002803D0F4
:1012D800044A13780133137010BDC046D4000020AF
:1012E8008C030020E400002010B5054C216800297B
:1012F80005D02279034801F0B3F92379237310BD8F
:10130800D40000208C030020054B10B59A68002AF1
:1013180004D0197B1B79994200D1904710BDC04673
:10132800D40000200848094B10B5036000238380CF
:10133800436183610133036201F00CFB002801D093
:1013480000F096FA10BDC0464C0400200030024060
:10135800084B026882B09A4209D18020064A4001AF
:10136800916B01439163936B03400193019B02B01E
:101378007047C04600300240001002400A0010B515
:101388000100024801F020FBC04310BD4C040020BE
:1013980007B50120084A916B01439163936B0321C0
:1013A8000340002201930830019B01F03FFA092015
:1013B80001F066FA07BDC04600100240F0B58FB0D4
:1013C8000393002302910500002100200593089350
:1013D8000993029B06900791002B03D1012420005A
:1013E8000FB0F0BD002AF9D0032316001E401A42A0
:1013F800F4D180231B059D42F0D3D308019311003B
:101408000723994391429241019B52429B188022A3
:101418000193254B1A6101F05BFC0028DED172B6FE
:1014280000F05AF9149908A8FFF74CFE2C0000F0B8
:101438005BF9029B5F1B019B3F199E4201D100246F
:1014480012E000F049F9039B002B13D10822390060
:1014580006A802F0B1FF069A079B2100012001F0BF
:101468008BFC002818D0012401F044FC00F052F94C
:1014780062B6B4E76305E9D1F8231B06E318DB0A73
:101488000C93012305A90D930AA8DB180A9301F010
:10149800B5FC0028DAD0E6E708A8FFF721FE002807
:1014A800E1D108340136C4E700200240F0B589B024
:1014B8001422002103A802F088FF022001258024BD
:1014C800A0262B4B2402596BF605014359635A6B2E
:1014D800284F02400092009A596B00180143596343
:1014E8005A6B210002400192019A5A6B22482A4302
:1014F8005A635B6B2A002B400293029B01F076FD36
:1015080030000022062101F071FD2A002900380070
:1015180001F06CFD80212A003000090101F066FD10
:1015280011230394002403A91348049305940694F3
:1015380001F0AEFC0623300003A90393049505943B
:10154800069401F0A5FC3800039503A9103504950D
:101558000594069401F09CFC802330001B0103A92C
:10156800039304950594069401F092FC09B0F0BD2C
:1015780000100240000400500008005003000A0058
:1015880010B503280AD807498000405806495B006F
:10159800595A002A03D0002201F028FD10BD01226B
:1015A800FAE7C046240000201C000020020010B505
:1015B800002800D00122A0200421C00501F016FD5A
:1015C80010BD0000F0B5022691B02F4D1C2200215D
:1015D80009A802F0FAFE6B6B012733436B636B6B50
:1015E800002433400293029B802303A903932748D6
:1015F8007A3B0893049605940697079702F005FE30
:10160800402303A9039321483A3B08930496059481
:101618000697079702F0F9FD8021EA6B89030A43D0
:10162800EA63EB6B1A4A0B40C52101938900019BC1
:1016380053581B021B0A535080231B041360099440
:101648000B940C940D940E940F94124C124B200092
:1016580009A90A9302F052FE802362689B0413438F
:101668006360E3680D4A1340E360E3680C4A134083
:10167800E36023680B4A1340236023680A4A134037
:10168800236011B0F0BDC0460010024000040050B5
:1016980000E100E000540040BC7D701001F8FFFF3D
:1016A800FF7FFFFFFFFFF7FFFFFFFDFF0748084B26
:1016B80010B5036000234360064BC360836001F0EC
:1016C8009BFC002801D000F0D3F810BD7004002066
:1016D80000300040FF0F000010B5024801F0BEFCCA
:1016E80010BDC046700400200748084B10B50360C1
:1016F80004234360064BC360836001F07DFC00282F
:1017080001D000F0B5F810BD700400200030004092
:10171800FF0F00000748084B10B50360042343601F
:101728006033C360836001F067FC002801D000F0DB
:101738009FF810BD700400200030004010B598B02C
:10174800342200210BA802F040FE1022002101A83B
:1017580002F03BFE1822002105A802F036FE802088
:10176800800001F083FC0A230B93F6330E930023C9
:101778000F9314930833159380239B0240221693EA
:101788008023022410929B053F3A0BA811921294D1
:101798001394179301F096FC002801D072B6FEE767
:1017A800072303900490210001A80193029401F0FB
:1017B800E9FE002801D072B6FEE7064B07900990B3
:1017C80005A8059301F08CFF002801D072B6FEE74A
:1017D80018B010BD2040000010B50D4C2000FFF7D8
:1017E8007FFC00280AD06368502B0AD1E62120002C
:1017F8008900FFF767FC0020FFF7D8FEFFF76CFFB2
:1018080010BD20005021FFF75DFC0120F4E7C04621
:101818003400002010B500F03DFBFFF78FFFFFF705
:1018280045FEFFF7B5FDFFF77FFCFFF7CBFE00F0A5
:1018380027F9FFF73BFF00F085F900F05FF800F0AB
:10184800B9F9FFF76FFD00F04BFAFFF745FAFFF71C
:101858005FFBFEF74DFFFFF719F9FFF7B9FAFFF73E
:10186800BBFFFEF755FFFFF715F9FFF727FBF6E774
:1018780072B6FEE701200A4B82B0196C0143196465
:1018880080211A6C490502400092009ADA6B0A43DB
:10189800DA63DB6B0B400193019B02B07047C046D3
:1018A80000100240FEE7FEE77047704710B500F0F1
:1018B80005FB10BD10B5024801F0B6F910BDC046D1
:1018C800F003002010B5024800F09CFC10BDC04693
:1018D8008C03002010B5024802F0F6F810BDC0468F
:1018E8006805002010B5FFF751FB10BD8022024BA0
:1018F80012059A607047C04600ED00E00A480B4B9D
:1019080010B50360042343600023094A8360036120
:1019180043618033C260836102F0CAF9002801D0B4
:10192800FFF7A6FF10BDC04668050020004401402F
:10193800FFF900001FB503681F4A93420AD102202D
:101948001E4AD16B0143D163D36B03400093009BC4
:1019580005B000BD1A4A93420AD18020174A0002F6
:10196800116C01431164136C03400193019BEFE771
:10197800144A934212D18020104A8002116C01430C
:101988001164136C03210340029300221520029B6B
:1019980000F04CFF152000F073FFD9E70A4A934284
:1019A800D6D18020054AC002116C01431164136C22
:1019B80003400393039BCBE7000400400010024060
:1019C80000200040004401400048014010B50400D8
:1019D80088B01422002103A802F0F7FC2368234AE8
:1019E800934217D10123224A516B19435163526B19
:1019F8001A400092009AC0220392BE3A0492002232
:101A080005920692A020079303A9C00501F040FAA9
:101A180008B010BD174A934211D10120144A516BE6
:101A280001435163536B03400193019B10230393BC
:101A38000E3B04930023059306930433E2E70E4A12
:101A48009342E5D102230A4A0C48516B194351636A
:101A5800526B03A91A400292029A802292000392C2
:101A680000220493059206920793CFE700040040F2
:101A780000100240002000400048014000040050CF
:101A880010B58EB01022002103A802F09EFC0C2293
:101A98000021684602F099FC1C22002107A802F0E8
:101AA80094FC264C264BFA222360002392006360A4
:101AB800A360236120008033E260A36102F0F8F89C
:101AC800002801D0FFF7D4FE802320005B0103A982
:101AD800039302F00DFA002801D0FFF7C9FE200099
:101AE80002F010F9002801D0FFF7C2FE0023694672
:101AF80020000093029302F0F7FA002801D0FFF7C4
:101B0800B7FE00226023200007A9079308920992D4
:101B18000B9202F05DF9002801D0FFF7A9FE04221C
:101B2800200007A902F054F9002801D0FFF7A0FE11
:101B38002000FFF74BFF0EB010BDC046CC040020BC
:101B48000004004010B588B01C22002101A802F052
:101B58003CFC164C164BFA2223600023920020000E
:101B68006360A360E2602361A36102F0A1F800282A
:101B780001D0FFF77DFE200002F0C4F8002801D054
:101B8800FFF776FE00226023200001A9019302924C
:101B98000392059202F01CF9002801D0FFF768FEB5
:101BA8002000FFF713FF08B010BDC0461C05002039
:101BB8000020004030B595B01C220021684602F094
:101BC80004FC3422002107A802F0FFFB214D224B20
:101BD800FA222B600023920028006B60AB60EA6059
:101BE8002B616B61AB6102F063F8002801D0FFF74D
:101BF8003FFE280002F086F8002801D0FFF738FEE3
:101C0800002460232200694628000093019402946E
:101C1800039404940594069402F0DAF8A04201D0E3
:101C2800FFF726FE802328009B0107A90794089444
:101C380009940A940B940C930D94139402F084FA6B
:101C4800002801D0FFF714FE2800FFF7BFFE15B0EB
:101C580030BDC046800400200048014070B50F4DDB
:101C680004002B78834210D00D480368002C0DD156
:101C7800FA2292005C634460C2609C6302F018F828
:101C8800002801D0FFF7F4FD2C7070BD1F224260C0
:101C9800044AC260044A5A639A63EFE7E5000020E9
:101CA800CC040020409C0000B80B000010B5034B8A
:101CB8001860034801F0D6FE10BDC0461805002084
:101CC80068050020044B10B5834204D1034B1B6800
:101CD800002B00D0984710BD68050020180500208B
:101CE80010B5094C0021200002F0FAF90421200067
:101CF80002F0F6F90021054802F0F2F90021044843
:101D080002F0EEF910BDC046CC0400201C050020EE
:101D180080040020074B1B78002B0AD1FA21064BC0
:101D280089001A68031C884201D3044B1B889BB2A4
:101D380093637047E5000020CC040020A444000809
:101D4800074B1B78002B0AD1FA21064B89001A6829
:101D5800031C884201D3044B1B889BB25363704712
:101D6800E5000020CC040020A444000810B50C4B6A
:101D78001B78012B10D1C8220B1CD200914200D233
:101D8800131C084A08499CB212688C4200D90B1CE3
:101D98009BB2002801D1536310BD9363FCE7C04692
:101DA800E5000020CC04002030110000002210B50E
:101DB800904202DA404200B20132FA21094B89000E
:101DC8001C68031C884201DB074B1B8807491BB2B0
:101DD8000968002A02D162634B6310BD6363002364
:101DE800FAE7C0461C050020A4440008800400202F
:101DF8000D488546FFF77AFD0C480D490D4A00232A
:101E080002E0D458C4500433C4188C42F9D30A4AA7
:101E18000A4C002301E013600432A242FBD302F013
:101E2800A7FAFFF7F7FCFEE70020002000000020DB
:101E380080000020B044000880000020B805002081
:101E4800FEE7000070B5104B05001978002901D194
:101E5800012070BDFA208000FEF74EF90B4B0100FF
:101E68001868FEF749F900F017FD041EF0D1032D9C
:101E7800EED8020001202900404200F0D7FC044BB4
:101E880020001D60E5E7C046400000203C0000201F
:101E9800440000208023084A5B00116810B50B43FA
:101EA80000201360FFF7CEFF041E03D1FFF7E2FC0A
:101EB800200010BD0124FBE700200240034A044B28
:101EC80011681B785B1813607047C046B405002082
:101ED80040000020014B18687047C046B405002038
:101EE80080684007C00F70470023F0B587B005939E
:101EF8000133041E019300D1C1E0856D002D05D189
:101F0800FFF784F923005433E5651D7080232668A4
:101F18005B05B2681A4200D1B4E00022B3680192AE
:101F2800DB0008D410230125A26D01951343A36596
:101F3800E36D2B43E3653000FFF7D2FF1023A26D5A
:101F48001A40104300D0ECE0A36D794A01001A4012
:101F580002231343A36523689A68D20731D4260065
:101F6800DA6818318A43A1683C360A43DA60626845
:101F7800E16C3578970FBF0739430295012D08D1D9
:101F8800256C666C35432943A56C2943029D39436A
:101F980029431E69674F3E4080270E431E61560045
:101FA8007608FF05BE420CD080263606B24208D01D
:101FB800614E624F35682F40F025AD032A403A4301
:101FC8003260267E627EB603D2031643A27E944612
:101FD8005703226B002A01D080225201E5682E4364
:101FE80025693E4303960295002D60DA6F007F084D
:101FF80026002C363678039D76002E433243661C25
:10200800F67F3A43012E05D16546002D52D1802630
:1020180076023243666A002E05D0E027A56A7F0063
:102028003E402E433243DE68454F656B3E401643C3
:10203800DE601E69434F3E40314307267027196111
:102048005969B143294359615E69A16BBE430901CE
:10205800314359610299002934D1986A10390143F2
:102068009962DB6838490B4093424DD10023032223
:10207800E365A36D93431A0001231343A3650198F5
:1020880007B0F0BDB26831490A401343B360304B22
:1020980030491868FEF730F8013040000590059B7C
:1020A800002B00D139E7059B013B0593F7E7802713
:1020B800BF039DE72027A56D2F43A765E76D3E4326
:1020C800E665A7E78021029D89038D42C9D10F27C4
:1020D800266E35008100CD40290039400F290DD0EA
:1020E80001300828F5D11C20996AE1690139890075
:1020F80001402C38884001003143B1E70128F2D172
:102108001021986A4942AAE71222A36D0125934338
:102118001A0010231343A365E36D01952B43E36570
:10212800ADE7A26D1343A36501230193A7E7C0465A
:10213800FDFEFFFF02FCFF1F08270140FFFFC3FF52
:102148001902FEFF02FCFFDFE7FF3F83E8FFFF6F96
:102158003C000020400D0300704710B5806AFFF76F
:10216800FBFF10BD704770474023806A10B5826D31
:10217800134383650423C26D1343C365FFF7F3FF5D
:1021880010BD0000502310B5846AA26D1A422CD1EC
:10219800A26DB133FF331343A365C02320681B012D
:1021A800C2681A4214D1A37E002B11D103681B0701
:1021B8000ED5FFF795FE00280ED10C212268536832
:1021C8008B435360A36D0E4A1A4001231343A36542
:1021D8002000FFF799F810BD2023A26D1343A365D3
:1021E8000123E26D1343E365F2E7A36DDB0603D534
:1021F8002000FFF7B8FFEEE7236D5B6B9847EAE72F
:10220800FEFEFFFFF8B5036804001E685D68022340
:102218001E420FD01D420DD0836DDB0604D48023EF
:10222800826D1B0113438365200000F0FDFA022232
:1022380023681A6004231E4201D01D4204D10823DA
:102248001E422AD01D4228D0A36DDB0604D4802369
:10225800A26D9B001343A365C02320681B01C268BD
:102268001A4214D1A37E002B11D103681B070ED587
:10227800FFF736FE002866D10C21226853688B438D
:102288005360A36D344A1A4001231343A365200009
:10229800FFF73AF80C2223681A6080273E420BD0D9
:1022A8003D4209D08023A26D5B021343A365200041
:1022B800FFF758FF23681F6080277F003E420BD03E
:1022C8003D4209D08023A26D9B021343A3652000E1
:1022D80000F0A8FA23681F608027BF003E420BD099
:1022E8003D4209D08023A26DDB021343A365200081
:1022F80000F099FA23681F6010231E4217D01D4270
:1023080015D0236B002B03D02368DB689B070BD009
:102318008023A26DDB001343A3650223E26D200036
:102328001343E365FFF71FFF102223681A60802715
:10233800BF013E4206D03D4204D0200000F075FAAD
:1023480023681F60F8BD2023A26D1343A3650123F2
:10235800E26D1343E3659AE7FEFEFFFF0023F0B545
:1023680087B00593030054331A7805000E00022045
:10237800012A00D1C3E001241C702868FFF7B0FDD2
:10238800002800D0F9E08022736812060193042324
:1023980094462F69019A9F433368022A00D1C2E00C
:1023A8005903490B2A68029167450FD1906A014386
:1023B8009162B16854691802734E014031408443F8
:1023C80021435161002B64DB002095E01F21019F10
:1023D8000F40BC460F2761468F40F9430391296E91
:1023E800B9430F000299002914D1980E1F310840F3
:1023F80061468840019907438908E86901312F66D9
:102408008142D6D864469900090FA140906A039C7E
:102418002040CCE72342EBD1022120000B42E7D138
:10242800080049180B42E3D101301907E0D4013004
:10243800D906DDD401309906DAD401305906D7D44B
:1024480001301906D4D40130D905D1D40130990509
:10245800CED401305905CBD401301905C8D4013088
:10246800D904C5D401309904C2D401305904BFD469
:1024780001301904BCD40130D903B9D4013099030F
:10248800B6D480211800C90208400B42B0D01220EF
:10249800AEE7E0243D4A3E48116864040C4083429C
:1024A8001AD180231B0419428ED111683948014082
:1024B80021431943384B116018683849FDF71CFE51
:1024C800431C0C2058430590059B002B00D17BE74B
:1024D800059B013B0593F7E73148834211D18026DC
:1024E800080076043040314200D06DE71168294B6E
:1024F800194021430E431660002354352B7007B052
:10250800F0BD2848834200D05EE780230800DB0343
:102518001840194200D057E711681E4E3140214338
:102528000B431360E8E7674505D128685903826AB9
:10253800490B8A438262002B00DB45E7134A1448A3
:102548001168834208D1A02310685B041940114B1D
:1025580003401943116037E71148834203D1C02370
:1025680010681B04F2E70F48834200D02CE7C02014
:102578004004014013680748EAE72023AA6D2000B9
:102588001343AB65B8E7C04600FFFF0708270140C3
:10259800001000B0FFFF3FFE3C000020400D03008C
:1025A800004000B8002000B40023F7B504000193F0
:1025B800036801209A68024201D00020FEBD996894
:1025C800224A114207D01023A26D1343A365E36D7D
:1025D8000343E365F2E79A681D4E32401043986062
:1025E8001C4B1B681B0223D4637E012BE5D0FFF72D
:1025F80071FC01250700226813682B42DDD193681E
:102608002B4203D1936833402B439360FFF762FC5E
:10261800C01B0228EFD923681B682B42EBD110237B
:10262800A26D01201343A365E36D1D43E565C5E76E
:10263800094B0A491868FDF75FFD01300190019BBD
:10264800002BD1D0019B013B0193F8E717000080D4
:10265800E8FFFF7F082701403C000020400D0300F1
:10266800F8B5040000680D001600FFF739FC0223D6
:10267800002840D1270054373A78012A3BD001225C
:102688003A702368D96811420CD19968114205D073
:102698009A681A49114002220A439A600122D968AD
:1026A8000A43DA602000FFF77FFF031E23D1A26DE3
:1026B80013491140802252000A43A265E065114A7D
:1026C800206D2168C262104A0263104A42631C22CC
:1026D8000A603B704A68103313434B602A0033008A
:1026E800403100F057FA030020680449826811401D
:1026F80004220A4382601800F8BDC046E8FFFF7F45
:10270800FEF0FFFF8D2100086321000871210008F9
:10271800036870B50400012099689A68024201D1E3
:10272800002070BD02221142FAD105219D680D409A
:10273800012D1FD19968134801400A439A6003226A
:102748001A60FFF7C7FB060023689B682B42E7D097
:10275800FFF7C0FB801B0228F6D923689B682B4231
:10276800F2D01023A26D01201343A365E36D1D432E
:10277800E565D6E71023A26D1343A365E36D034314
:10278800E365CEE7E8FFFF7F73B5002305000193FB
:1027980054352B7804000220012B2DD0012620006F
:1027A8002E70FFF7B5FF23689A68324232D1A26DC6
:1027B8001A490236114002220A43A265D968DA682A
:1027C8003140B243DA6080229E6812063243144ECA
:1027D8009A609A68002A10DA019A01320192019AE5
:1027E800B242F6D91222A36D012093431A00102396
:1027F8001343A36500232B7076BDDA680A43DA60B9
:102808000322A36D93431A0001231343A3650023F6
:102818002B70F1E71023A26DF7E7C046FDFEFFFF1E
:10282800FFF10200704770477047704730B5FF25C9
:1028380003242A000440E400A24089012940D2432D
:10284800A140C3B200280ADBC0240B4B80088000DB
:10285800C018A40003591A401143015130BD0F207C
:102868000340083B05489B089B001B18D869024099
:102878001143D961F2E7C04600E100E000ED00E055
:10288800002805DB1F2318401E3B8340014A1360C4
:102898007047C04600E100E08022431E5204012038
:1028A80093420DD2C021074A07485360036A0906BC
:1028B8001B021B0A0B43036200200723906013606E
:1028C8007047C04610E000E000ED00E0F7B50E00EC
:1028D8009508AD004B1901930368019CA64209D1E4
:1028E800032416002640224219D0012E0FD14A5D3A
:1028F8001A7014E03478777824063F043C43F7785C
:102908003C43B77804363F023C431C60E5E74C196A
:10291800495D627809020A431A80022E02D10368CF
:102928001868FEBDA278E3E7F0B50D000026006840
:102938005408B44206D1D30702D5A400635A0380D1
:102948000068F0BD2B886F881B043B430360013689
:102958000435EEE710B5041E01D1012010BD437FF8
:10296800DAB2002B02D10277FEF7F2FC022363777A
:102978002379002B1CD118212368124A5A619A68BE
:102988008A439A6062792368002A19D1013A602142
:102998001A619A6800208A4361690A4380219A6013
:1029A8009A688A43A1690A439A6001236377D5E745
:1029B8002000E268A16800F02CF80028E2D0CCE7FB
:1029C8002269E4E7B71DC104022370B54377040008
:1029D800036801209D6828439860206A022814D063
:1029E800032805D001280CD000200123637770BD8F
:1029F80092008A18914201D11868F6E701C9186057
:102A0800F8E72000FFF762FFEFE72000FFF78CFFF1
:102A1800EBE730B51F2304000120013B06D30D006E
:102A2800DD400542F9D0082A17D003D8002A0BD078
:102A3800012006E00120102A04D0182A01D1062B13
:102A480002D930BD072BFCD8206841611821836862
:102A58008B431A4382600020F3E701200F2BF3D940
:102A6800EFE70000F0B5846CC56C6560046D002C60
:102A780002D0446D856D65601C25046C084E2540A8
:102A88000124AC4077683C437460046863608368E1
:102A9800102B02D1A260E160F0BDA160E260FBE70B
:102AA8000000024010B50400036C094A9B089B18FB
:102AB8009B00436403681421D8B20838FDF71CFB57
:102AC800044BA3641F2318401E3B8340E36410BDDE
:102AD800008200108008024070B504000120002C1C
:102AE80049D02568274B1421E818FDF705FB022378
:102AF8008000A61D2064F3772B68234AE168134001
:102B08002B60A3682A680B43216920000B43616985
:102B18000B43A1690B43E1690B43216A0B43134340
:102B28002B60FFF7BFFF8023A268DB019A4201D127
:102B3800002363603F236268616C13400B60E06CA4
:102B4800A16C013A4860032A16D8104A104899180F
:102B58000322013B1340023A9A40A2651300002267
:102B68008900216560650A60436000200123E063F5
:102B78000534F377E07770BD002323656365A365AB
:102B8800F3E7C046F8FFFDBF0F80FFFF3F8200104C
:102B980040090240F7B5451D0193EE7F040002206D
:102BA800012E34D00138E877A71DFE7FB44663466E
:102BB800F6B200960026834231D10130F8772568B5
:102BC800E6632868009B98432860019B2000FFF774
:102BD80049FF226B2368B2421AD00E2219680A43B1
:102BE8001A60626C1168C90304D580211068490015
:102BF80001431160226D002A04D080211068490029
:102C0800014311600122002019680A431A60FEBDC1
:102C180004211A688A431A6019680A22DFE78023A8
:102C2800E363EE77F3E70000F8B51C210427046C92
:102C3800264B21403C008C401E68026815682642DD
:102C48000FD03D420DD01168890602D41168B943EE
:102C580011605A6814435C60036B002B1BD09847C3
:102C680019E002273C008C40264215D03D4213D083
:102C78001168890606D40A251168A9431160012143
:102C8800821DD1775A68144300225C60431DDA77AD
:102C9800C36A9342E3D1F8BD082427008F403E421F
:102CA800F9D02542F7D00E251468AC4314600122F0
:102CB80015008D4029005C6821435960831DC2635B
:102CC800DA770022431DDA77436BE2E7000002401F
:102CD8000020054B5A69824205DA044A9A60044A80
:102CE8009A605869C00F7047002002402301674569
:102CF800AB89EFCD8022044B120659690A435A6109
:102D08005869C043C00F704700200240F8B504005E
:102D18008027FFF7DFF87F020519134B1A691E0099
:102D28003A420BD11969114A0800114D10401D6132
:102D3800114209D00F4B5860012004E0FFF7CAF890
:102D4800A842EAD30320F8BDFFF7C4F88025241869
:102D5800ED023369180028402B42F4D0FFF7BAF887
:102D68008442F6D8EEE7C04600200240FA8300000D
:102D7800FB830000E8000020F7B5174E0193337875
:102D880004000D0002200092012B1ED00123FA201E
:102D98003370002380007360FFF7B8FF002812D15A
:102DA8000E4F012C12D17B6923437B61009B2B6062
:102DB800BFF36F8F019B6B60FA208000FFF7A6FFBF
:102DC8007B69A3437B6100233370FEBD2800009913
:102DD80001F012FBF0E7C046E800002000200240A6
:102DE800F820044AC900536983431943024B194325
:102DF800516170470020024002000100F7B5214FE1
:102E080005003B7802240191012B1AD00123FA20F6
:102E18003B70002380007B60FFF778FF041E0ED113
:102E280004236B602B68042B0DD1FA20164A174B2C
:102E3800516980000B435361FFF768FF04000023CA
:102E48003B702000FEBD0123019A5B421360AE680F
:102E5800AB68EA689B18B3420CD968683100FFF781
:102E6800BFFFFA208000FFF751FF002808D00400B8
:102E7800019B1E600221044A53698B435361DEE7BC
:102E88000136E5E7E80000200020024004000100C8
:102E98000023F0B585B00A681400DC4001D105B004
:102EA800F0BD012514009D402C4001942A4200D118
:102EB8008EE04A685E00944603226446224003245A
:102EC800B440E4430294541E012C2AD88768029C1B
:102ED8002740CC68B4403C43846044680127AC4335
:102EE8002500644624093C409C402C434460C56846
:102EF800029C25408C68B4402C43C460022A12D13D
:102F0800DC080725A4000419276A03940F241D4030
:102F1800AD00AC40A7430C69AC402743039C276233
:102F280001E0032AE3D10468029DB24025402C0049
:102F380014430460C0246246A402224248D0254AB1
:102F480003259C08A400A4180F221D40ED00AA40E8
:102F5800A027266EFF0596430022B8420CD01E4FCC
:102F68000132B84208D01D4F0132B84204D01C4F7C
:102F78000132B84200D00232AA4067463243226684
:102F8800184A019CD66F019DE4433543FF0301D4E1
:102F9800350025406746D567134D019EEA6F1643F5
:102FA800BF0301D42240160067460A4AEE67166836
:102FB800019D3543FF0201D4350025406746156061
:102FC8005568019E2E43BF0201D425402E0056604D
:102FD800013360E700180240000400500008005068
:102FE800000C00500418024008180240002A01D0C2
:102FF800816170478162FCE770B504000120002CF4
:1030080017D02368124A07251A60124A1A606268A4
:103018005A60A2689A60FEF75DFF06002368DA68C6
:10302800100028402A4205D11969E26891420CD063
:103038001A6170BDFEF74EFF801B3128EED9236858
:10304800DB682B42EAD00320F3E7034A1A60F0E773
:10305800CCCC000055550000AAAA00000368024A1B
:1030680000201A607047C046AAAA000010B5114C8B
:103078001149236802000B4003432360802300208A
:103088009B009A420ED10D4B0D49186806235843F0
:10309800FDF732F88022431CD20061690800104015
:1030A800114200D110BD002B01D0013BF5E70320F0
:1030B800F8E7C04600700040FFF9FFFF3C00002021
:1030C80040420F00F0B5040085B0002823D0036803
:1030D800DB0710D423689B075ED423681B0700D541
:1030E800C3E023685B0700D5F5E0E269002A00D059
:1030F8007CE1002029E03822B04DAB681340EA6833
:10310800102B0AD1D243930709D12B689B03E1D531
:103118006368002BDED1012017E0082BF5D0802250
:1031280063685202934212D12A6813432B60FEF758
:10313800D1FE80270600BF022B683B42CAD1FEF7AA
:10314800C9FE801B6428F7D9032005B0F0BDA02173
:10315800C9028B4208D180232968DB020B432B600C
:103168002B681A432A60E2E72A6895490A402A60D0
:103178002A6894490A402A60002BD8D1FEF7AAFE93
:1031880080270600BF022B683B42A3D0FEF7A2FEB1
:10319800801B6428F7D9D7E73823884DAA681340DD
:1031A800EA68102B28D103210A40022A26D12A686E
:1031B800520502D5E268002AADD069686269824882
:1031C800120201400A436A60002B0DD12B687F4A26
:1031D8001340226913432B602B687D4A9B045B0FC5
:1031E800DA4013007B4A13607B4B1868FEF72AFE0F
:1031F800002800D171E78EE7002BD8D0E368002BB8
:1032080020D02B68714A802713402269FF0013439E
:103218002B6080232A685B0013432B60FEF75AFE5D
:1032280006002B683B4207D06A68636966491B023F
:103238000A4013436B6050E7FEF74CFE801B0228E0
:10324800EFD981E72B68654A802713402B60FEF78A
:1032580041FE0600FF002B683B4200D13DE7FEF728
:1032680039FE801B0228F6D96EE73821534B9A683D
:103278001D000A40182A08D11B6E9B0700D430E7AE
:10328800A369002B00D02CE745E7A2690123002A97
:1032980010D02A6E022713432B66FEF71BFE06008A
:1032A8002B6E3B4200D01CE7FEF714FE801B022861
:1032B800F6D949E72A6E02279A432A66FEF70AFEDC
:1032C80006002B6E3B4200D10BE7FEF703FE801B86
:1032D8000228F6D938E73821384B9A681D000A4089
:1032E800202A08D1DB6D9B0700D4FEE6A368002BDB
:1032F80000D0FAE60FE780220021DB6B520500912F
:10330800134208D1EB6B1343EB63EB6B134003934E
:10331800039B012300938027314E7F0033683B4293
:1033280015D0A368012B22D1EA6D1343EB65FEF794
:10333800D1FD02270600EB6D3B4238D0009B012BE4
:1033480000D0D2E6EB6B274A1340EB63CDE6336837
:103358003B433360FEF7BEFD019033683B42E0D14A
:10336800FEF7B8FD019BC01A0228F6D9ECE6EA6D13
:10337800052B05D1013B1343EB65EA6D0123D4E727
:1033880001218A43EA65EA6D03318A43EA65002B25
:10339800CDD1FEF79FFD02270600EB6D3B42CDD055
:1033A800FEF798FD104B801B9842F6D9CCE6FEF745
:1033B80091FD0D4B801B9842BDD9C5E60010024017
:1033C800FFFFFEFFFFFFFBFFFF80FFFFFFC7FFFFC1
:1033D8000024F4003C00002044000020FFFEFFFF12
:1033E80000700040FFFFFFEF8813000038203F4BBC
:1033F80099681D000140102952D01B683C490B40B8
:103408002B60022A35D1FEF765FD80270600BF0430
:103418002B683B4227D1616A236AEA680B43354926
:1034280080260A401343E26AB6041343226B13430F
:10343800A26A12021343EB6080232A685B041343D9
:103448002B608023EA685B051343EB60FEF742FDBF
:1034580004002B68334200D04BE6FEF73BFD001B0F
:103468000228F6D970E6FEF735FD801B0228CFD971
:103478006AE60322EB6880269343EB60EB681E4AFA
:10348800B6041340EB60FEF725FD04002B683342B9
:1034980000D12EE6FEF71EFD001B0228F6D953E6E2
:1034A800012A00D137E60322DB68216A1A408A42E2
:1034B80000D030E67022616A1A408A4200D02AE6BB
:1034C800FE21A26AC90119401202914200D022E6E7
:1034D800F822E16A92031A408A4200D01BE6226B66
:1034E8005B0F5B07934200D103E614E6001002402D
:1034F800FFFFFFFE8C80C11FFFFFFEEF38231E4A2F
:1035080070B591681400194205D113681B489B04D3
:103518005B0FD84070BD91681940082927D0916881
:103528001940102917D1D368D168DB437F22E56899
:103538004906490F2D0A013115409B0709D110484A
:10354800FCF7DAFDE1686843490F0131FCF7D4FD67
:10355800E0E70A48F4E791681940202909D0926801
:1035680000201340182BD5D1FA20C001D2E7044817
:10357800D0E780200002CDE7001002400024F400CC
:1035880000127A00F7B505000E00002801D10120CD
:10359800FEBD07274A4C23683B408B422AD3296843
:1035A8008B073BD4CB0748D4072723683B40B3425B
:1035B8000AD92368BB4333432360FEF78BFC019091
:1035C80023683B40B3426BD12B683E4C5B076FD4FA
:1035D800FFF794FFA3683C4A1B051B0F9B009B58F1
:1035E8001F221340D840394B1860394B1868FEF732
:1035F80029FCCDE72368BB430B432360FEF76AFC35
:10360800019023683B40B342C9D0FEF763FC019B9D
:10361800C01A304B9842F4D90320B9E7294A4B071E
:1036280004D5E0239068DB010343936093682A483C
:103638000340A86803439360B4E76A68214F012AEE
:1036480019D13B689B03A2D50721BB688B43134361
:10365800BB60FEF73FFC01903823BA681A406B68DC
:10366800DB009A42A0D0FEF735FC019BC01A194B2B
:103678009842F1D9D0E7022A03D13B689B01E3D4F1
:1036880085E7002A03D13B685B05DDD47FE7022389
:10369800032A03D1396E1942D6D178E7F96DFAE7D2
:1036A800FEF718FC019BC01A0A4B984288D9B3E769
:1036B800A3680A4A1340EA681343A36088E7C04630
:1036C8000020024000100240644400083C00002032
:1036D8004400002088130000FFF0FFFFFF8FFFFF6A
:1036E800F0B505002B68002085B09B033BD58022F0
:1036F800484C5205E36B0090134208D1E36B134327
:10370800E363E36B13400393039B01230093802738
:10371800414E7F0033683B433360FEF7DBFB01908B
:1037280033683B4211D0E26DC02311009B003B4E31
:1037380019401A4202D06B6999424DD1E36D0020BD
:103748001E406B691E43E66506E0FEF7C3FB019B5E
:10375800C01A0228E4D90320009B012B03D1E36B94
:103768002F4A1340E3632A68D30706D5032429495F
:103778004B6DA3436C6823434B65930606D52549D7
:10378800284C4B6D2340AC6823434B6553040FD53D
:1037980020492C694B6D9B009B0823434B65802374
:1037A800DB059C4204D18023CC685B022343CB60B9
:1037B80013050FD5174A1C4C536DE96823400B437A
:1037C80053658023DB01994204D18023D1685B02D1
:1037D8000B43D36005B0F0BD8023E26DE06D1100AE
:1037E8005B020343E365E36D104831400340E36542
:1037F800E165D307A2D5FEF76DFB07000222E36D52
:1038080013429BD1FEF766FB094BC01B9842F5D9C2
:10381800A1E7C0460010024000700040FFFCFFFF17
:10382800FFFFFFEFFFCFFFFFFF3FFFFFFFFFFEFFA1
:10383800881300000122036A70B593430362036A88
:10384800164A4468856915400A681543022293435D
:103858008A681343124A904205D0124EB04202D0F1
:10386800114EB04213D10826B343CE683343042621
:10387800B343904205D00B4A904202D00A4A904284
:1038880005D10A4A8E6922404C69344314434A6878
:10389800446085614263036270BDC0468CFFFEFFD1
:1038A800002C01400044014000480140FFFCFFFF9C
:1038B800036A174A70B513400362036A154D4268DC
:1038C800C4692C400D682C43134D2B408D682D0284
:1038D8002B43124DA8420ED1114D1D40CB681B023F
:1038E8002B43104D2B40104D4E6915408A693243C9
:1038F80012012A4305E00D4DA842F4D00C4DA84210
:10390800F1D042604A68C461C263036270BDC046B8
:10391800FFFEFFFF8CFFFEFFFFFDFFFF002C0140B5
:10392800FFF7FFFFFFFBFFFFFFCFFFFF0044014052
:1039380000480140036A124A30B513400362026A24
:10394800104C4368C56925400C68240225430E4C79
:1039580022408C68240322430C4CA04205D00C4C16
:10396800A04202D00B4CA04204D10B4C23404C691E
:10397800A401234343604B68C5610364026230BD00
:10398800FFEFFFFFFF8CFFFEFFDFFFFF002C014072
:103998000044014000480140FFBFFFFF036A114A8D
:1039A80070B513400362046A0F4E4368456D354095
:1039B8000E6835430D4E34408E68360434430C4E41
:1039C800B04205D00B4EB04202D00B4EB04203D1EC
:1039D80013404A691202134343604B684565836587
:1039E800046270BDFFFFFEFF8FFFFEFFFFFFFDFFBC
:1039F800002C01400044014000480140036A124A7B
:103A080030B513400362026A104C4368456D254087
:103A18000C68240225430E4C22408C68240522435E
:103A28000C4CA04205D00C4CA04202D00B4CA0423A
:103A380004D10B4C23404C69A402234343604B68D8
:103A48004565C365026230BDFFFFEFFFFF8FFFFED4
:103A5800FFFFDFFF002C0140004401400048014007
:103A6800FFFFFBFF0200030001203D321178814275
:103A780018D1022111701B68DA680243DA600C4A17
:103A8800934202D00B4A93420DD19A680A4900200A
:103A98000A40062A06D007398A4203D0012219684B
:103AA8000A431A6070471A68104318600020F9E743
:103AB800002C0140000400400700010070477047D7
:103AC80070477047704700000222036810B51969F3
:103AD800040011420ED0D96811420BD0053A1A6180
:103AE800043202779B699B0700D186E0FFF7E8FF65
:103AF80000232377042223681969114211D0D96859
:103B080011420ED0093A1A61073222779A69C02306
:103B18009B0020001A4200D175E0FFF7D1FF002377
:103B2800237708222368196911420ED0D9681142F7
:103B38000BD0113A1A610D322277DB6920009B07FE
:103B480067D0FFF7BDFF0023237710222368196988
:103B5800114210D0D96811420DD0213A1A61193298
:103B68002277DA69C0239B0020001A4257D0FFF75A
:103B7800A7FF00232377012223681969114207D080
:103B8800D968114204D0033A20001A61FEF79AF866
:103B9800802223681969114208D0D968114205D0DA
:103BA800023AFF3A20001A6100F02DFB23681A69D7
:103BB800D20507D5DA68120604D51C4A20001A6116
:103BC80000F022FB402223681969114207D0D96806
:103BD800114204D0813A20001A61FFF773FF2022B6
:103BE80023681969114207D0D968114204D0413AB3
:103BF80020001A6100F006FB10BDFFF760FF2000EF
:103C0800FFF75FFF74E7FFF75AFF2000FFF759FF40
:103C180085E7FFF754FF2000FFF753FF93E7FFF70F
:103C28004EFF2000FFF74DFFA3E7C046FFFEFFFF52
:103C3800194A10B50368904202D0184CA04208D126
:103C48007024A3434C68234390420BD0134CA042EA
:103C580008D0134CA04205D0124CA04202D0124CFE
:103C6800A04203D1114C2340CC6823438024A343B2
:103C78004C69234303608B68C3620B68836290427C
:103C880005D0084B984202D0074B984201D10B69E6
:103C980003630123436110BD002C01400004004070
:103CA800002000400044014000480140FFFCFFFFA5
:103CB80070B504000120002C23D025003D352B7859
:103CC800DAB2002B05D123003C3320001A70FDF72F
:103CD80031FE02232B702068211DFFF7A9FF220067
:103CE800012300204832137047340A3A1370537086
:103CF8009370D370137153719371D37113722370CE
:103D08002B7070BD70B504000120002C23D0250055
:103D18003D352B78DAB2002B05D123003C33200047
:103D28001A70FFF7CBFE02232B702068211DFFF7C6
:103D38007FFF2200012300204832137047340A3ADB
:103D4800137053709370D370137153719371D3714F
:103D5800137223702B7070BD1022036A70B59343E1
:103D68000362026A154D436884692C400D682D0270
:103D78002C432025AA438D682D012A43104DA842C3
:103D88000FD18025AA431500CA6812012A4340258D
:103D9800AA430C4D4E691D408B6933439B002B434E
:103DA80005E0094DA842F4D0084DA842F1D043607F
:103DB8004B6884618363026270BDC046FF8CFFFE5E
:103DC800002C0140FFF3FFFF004401400048014080
:103DD800F8B507003C373B7804000D0016000220B8
:103DE800012B0CD001233B700C2A50D008D8042A90
:103DF8002CD0082A3BD0002A17D000203870F8BDF4
:103E0800102A55D0142AF8D12068FFF7F7FD802230
:103E180023681201596D0A435A655A6D2D490A40A3
:103E28005A652A69596D120250E02068FFF702FDB1
:103E38000822236899690A4304219A619A698A4386
:103E48009A619A6929690A439A61D6E72068FFF757
:103E580083FF80222368120199690A439A619A694B
:103E68001C490A409A612A6999691202EBE720689D
:103E7800FFF71EFD04212368DA691643DE61DA695B
:103E88008A43DA61DA6929690A43DA61B5E72068A1
:103E9800FFF750FD802223681201D9690A43DA61CD
:103EA800DA690C490A40DA612A69D9691202EBE732
:103EB8002068FFF773FD08222368596D0A4304211F
:103EC8005A655A6D8A435A655A6D29690A435A6573
:103ED80093E7C046FFFBFFFF30B58468034D0A43F4
:103EE8001B022C4013432343836030BDFF00FFFFB8
:103EF800F8B5050002233C352A7804001800012A89
:103F080023D0260001273D362F70337020683F4AA2
:103F18008368134083600B68602B4BD02FD8402BED
:103F28005FD013D8202B04D009D810221900914350
:103F380007D1826836490A40134307221CE0302B18
:103F4800F7D00123002033702870F8BD502BF8D12A
:103F58004A68CB68016A046A1B01BC43F027046203
:103F68008469BC4323430A24A1430A438361026250
:103F78008368274A1A40572313438360E1E7702B6D
:103F88000DD0802292019342DBD1CB684A688968C0
:103F9800FFF7A2FF80232268DB01916807E0CB6866
:103FA8004A688968FFF798FF7723226891680B436E
:103FB8009360C6E710244B68CA68016A154FA1438D
:103FC8000162846912033C402243A024016A1B0158
:103FD800A1430B438261036283680D4A1A40672339
:103FE800CAE74A68CB68016A046A1B01BC43F02728
:103FF80004628469BC4323430A24A1430A438361BE
:1040080002628368024A1A404723B5E78800CEFF58
:104018008FFFCFFFFF0FFFFF1F2310B501241940AB
:104028008C408A40036AA3430362036A1A4302620C
:1040380010BD000010B503000400002905D13E336F
:1040480001201A78824212D010BD042901D13F33D1
:10405800F6E7082901D14033F2E70C2901D14133B1
:10406800EEE7102901D14233EAE74333E8E70222B9
:104078001A7020680122FFF7CFFF236813498B428B
:1040880016D0134A934213D0124A934210D0124AC0
:10409800934215D19A68114900200A40062AD3D0C4
:1040A80007398A42D0D0012219680A431A60CBE73F
:1040B8008022586C120202435A648B42E7D1E9E726
:1040C8000122196800200A431A60BDE7002C01404C
:1040D800004401400048014000040040070001007E
:1040E80010B5FFF7A7FF10BDF0B5040002223C345D
:1040F800257803001000012D1FD01D003D352A70C2
:104108001A680E4E53689068B24203D10C4F3B4078
:104118004F683B437027BB430F683B435360B24231
:1041280002D0084B9A4204D1802398438B681843E5
:104138009060012300202B702070F0BD002C0140FE
:10414800FFFF0FFF0004004010B504003C34237843
:1041580002000220012B39D0C8681D4B12680340A9
:10416800886803431B480340486803431A480340D0
:104178000868034319480340086903431848034083
:104188004869034317480340086B03431648034034
:104198008869000403431548824214D11448034037
:1041A800C8690343134818408B6A1B050343124828
:1041B8000340086A034311480340486AC96A034335
:1041C8000F4803400B4300205364207010BDC046C5
:1041D800FFFCFFFFFFFBFFFFFFF7FFFFFFEFFFFF06
:1041E800FFDFFFFFFFBFFFFFFFFFF0FF002C0140D5
:1041F800FFFFFFEFFFFF0FFFFFFFFFFEFFFFFFFDCA
:10420800FFFFFFDF704770477047F7B502000027D0
:104218000C682000F84000D1FEBD01202300B84002
:104228000340044233D04868032484461800654696
:1042380058434443013DE443012D0BD88D689668EB
:10424800454326403543CE6895605E4355689D4397
:10425800354355600D69D668454326403543D560DA
:104268006546022D0DD14D690195FF2B11D803002C
:104278000F2543435D43166AAE43019D6B431E43BE
:10428800166213681C4063465843044314600137A0
:10429800BEE70F261B0A5B435B435E43556AB54383
:1042A800019E73431D435562EBE700000E4A03006D
:1042B80090420BD180220D4B9203D96A0A43DA62ED
:1042C800DA6A0B4900200A40DA627047094A01207D
:1042D8009342FAD18022054BD203D96A0A43DA62A3
:1042E800DA6A0549EEE7C046005400400010024073
:1042F800FFFFDFFF00580040FFFFBFFF01220368F8
:1043080030B593430360CB688D681B0204682B4368
:10431800144D2C40234303604B680D690361036807
:104328001A4302608268104B1A40826084688A6966
:10433800E40AE4022A43224382601C00002D04D0D0
:10434800802382681B02134383600268074B1A406C
:104358000B681A43026043684A6923401343436069
:10436800002030BDFFE0FFFFFF7FFFFFFFFFCFFF13
:1043780070B500260C4D0D4C641BA410A64209D143
:10438800002600F02BF80A4D0A4C641BA410A64224
:1043980005D170BDB300EB5898470136EEE7B3007E
:1043A800EB5898470136F2E7A8440008A8440008EB
:1043B800A8440008AC440008002310B59A4200D174
:1043C80010BDCC5CC4540133F8E703008218934253
:1043D80000D1704719700133F9E70000F8B5C046FD
:1043E800F8BC08BC9E467047F8B5C046F8BC08BC87
:1043F8009E4670470000000001B40248844601BC94
:08440800604700BF49000020DD
:1044100004000300A086010000000000A086010047
:1044200000000000A086010000000000A08601003E
:1044300000000000A086010000000000FFFFFFFF59
:10444000FFFFFFFFFFFFFFFFFFFFFFFFFFFFFFFF7C
:10445000FFFFFFFFFFFFFFFFFFFFFFFFFFFFFFFF6C
:10446000FFFFFFFF00000000000000000000000050
:10447000000000000000000000000000000000003C
:104480000000000001000000020000000300000026
:104490000400000006000000070000000800000003
:0844A00009000000E703000021
:0444A800E100000827
:0444AC00B90000084B
:1044B00001000000E8030000F00C00000100000013
:1044C0001400000001000000E8030000020000806A
:1044D00000080100000000500008005000000050DB
:1044E0000004005001000000010000000024F4005E
:1044F000010000000400000080220C4B30B55C6914
:10450000D20222435A61EFF3108272B64C1CFF3480
:10451000401A0D6845500431A142FAD18021490268
:1045200018690842FCD182F3108830BD0020024097
:0400000508001DF9D9
:00000001FF
