:020000040800F2
:2000000000200020C11400087D0F00087F0F00080000000000000000000000000000000099
:20002000000000000000000000000000810F00080000000000000000830F0008850F0008F2
:2000400011150008000000001115000811150008111500081115000811150008111500085E
:20006000000000008D0F000811150008111500089D0F000811150008111500080000000070
:200080001115000800000000000000001115000800000000AD0F000811150008BD0F00083E
:2000A00011150008111500081115000811150008111500080000000010B5064C2378002B7D
:2000C00007D1054B002B02D0044800E000BF0123237010BD2800002000000000F43A00080E
:2000E000044B10B5002B03D00349044800E000BF10BDC046000000002C000020F43A000862
:2001000002B4714649084900095C49008E4402BC7047C046002243088B4274D303098B4283
:200120005FD3030A8B4244D3030B8B4228D3030C8B420DD3FF22090212BA030C8B4202D361
:200140001212090265D0030B8B4219D300E0090AC30B8B4201D3CB03C01A5241830B8B427C
:2001600001D38B03C01A5241430B8B4201D34B03C01A5241030B8B4201D30B03C01A5241DC
:20018000C30A8B4201D3CB02C01A5241830A8B4201D38B02C01A5241430A8B4201D34B0254
:2001A000C01A5241030A8B4201D30B02C01A5241CDD2C3098B4201D3CB01C01A52418309D9
:2001C0008B4201D38B01C01A524143098B4201D34B01C01A524103098B4201D30B01C01A4C
:2001E0005241C3088B4201D3CB00C01A524183088B4201D38B00C01A524143088B4201D3B8
:200200004B00C01A5241411A00D20146524110467047FFE701B5002000F0F0F802BDC046B9
:200220000029F7D076E7704703460B437FD4002243088B4274D303098B425FD3030A8B426A
:2002400044D3030B8B4228D3030C8B420DD3FF22090212BA030C8B4202D31212090265D0E8
:20026000030B8B4219D300E0090AC30B8B4201D3CB03C01A5241830B8B4201D38B03C01A83
:200280005241430B8B4201D34B03C01A5241030B8B4201D30B03C01A5241C30A8B4201D389
:2002A000CB02C01A5241830A8B4201D38B02C01A5241430A8B4201D34B02C01A5241030A27
:2002C0008B4201D30B02C01A5241CDD2C3098B4201D3CB01C01A524183098B4201D38B0105
:2002E000C01A524143098B4201D34B01C01A524103098B4201D30B01C01A5241C3088B422D
:2003000001D3CB00C01A524183088B4201D38B00C01A524143088B4201D34B00C01A524109
:20032000411A00D201465241104670475DE0CA0F00D04942031000D34042534000229C4639
:2003400003098B422DD3030A8B4212D3FC22890112BA030A8B420CD3890192118B4208D303
:20036000890192118B4204D389013AD0921100E08909C3098B4201D3CB01C01A52418309D1
:200380008B4201D38B01C01A524143098B4201D34B01C01A524103098B4201D30B01C01A8A
:2003A0005241C3088B4201D3CB00C01A524183088B4201D38B00C01A5241D9D243088B421F
:2003C00001D34B00C01A5241411A00D20146634652415B10104601D34042002B00D549423F
:2003E000704763465B1000D3404201B5002000F005F802BD0029F8D016E770477047C046F9
:200400000122014B1A7070474E00002010B500F0C1FB10BD10B50521034A044800F0A2FB6F
:20042000034800F087FF10BD01040008440000200D040008F0B5002485B0554E02AB300026
:200440009D1D5C712C8000F09FFAA04207D0300000F0AFFA4F4B504A19881C8011804F4BC2
:200460001A78002A00D189E000244A4A1C7013884B4F013313804B4B4B4E1B8800935B0086
:20048000DF194A4B3268E35A142198183A883B80474B801AE31801C60193FFF73BFE019B49
:2004A0000234188028370A2CEBD1009B3D4A01339BB2132B00D963E013803E4B3E481B88DB
:2004C00058433B4B9988FFF725FE3C4B3C4EC2183C4B9A4200D830803388652128002B80D7
:2004E00000F046F9384B1C88384B1F88BC4249D02F4B3088DB8830495843FFF70BFEC31BDF
:200500006420E11B5843FFF78FFE1E3002AB58716421581D00F01EF90021254800F028F9D9
:2005200002212B4800F024F904212A4800F020F90621294800F01CF90821284800F018F941
:2005400000244527264B1A4AE35C30885B00D35A5843E3B200130093002C15D116217843DD
:20056000FFF762FEE3B2590080B20A312880C9B22800013400F0FCF8032CE3D105B0F0BD21
:20058000002399E71748C1E764230E215843E7E70000002052000020540000204E0000201E
:2005A0007E00002050000020480100204400002074000020AA75FF1FB80B0000ABF4FFFF2F
:2005C0000800002082030000CA75FF1FA875FF1F76000020780000207A0000207C00002072
:2005E0000C3B0008FF7F000010B500F0BDFE10BD73B56A460023324E01AC3000951D238044
:200600002B8000F0C1F9002858D0300000F0D1F91021200000F07AF82A4B22889A4204D9C0
:2006200010212000238000F0A3F8FA2322881B019A4204D210212000238000F099F86421AC
:200640002388214E2148584333885943FFF7ECFD80B200F0A3FE1221200000F057F81C4B8A
:2006600022889A4204D912212000238000F080F82388184831885843FFF7D6FD80B200F06F
:200680009DFE1421280000F053F8134B00216A5E9A4204DA142128002B8000F07BF8FA239E
:2006A00000216A5E9B009A4204DD142128002B8000F070F80023E85E00F090FE73BDC0467C
:2006C0000C000020204E000008000020A236000010270000D9DC040018FCFFFF002211004B
:2006E000094BD018013201707C2AFAD11A000120783210701A00793211701A0000187A3220
:200700007B331070197070475D010020002310B5792908D8031E06D0044B0222C91803F045
:20072000D7F962B60123180010BDC0465D010020002310B5792908D8031E06D0044B022270
:20074000C91803F0C5F962B60123180010BDC0465D010020030000207A2906D8181E04D0B4
:200760001A78024B5A5462B6012070475D010020030010B50020792909D8181E07D00448BA
:2007800002220818190003F0A3F962B6012010BD5D010020030010B50020792909D8181E48
:2007A00007D0044802220818190003F091F962B6012010BD5D0100200A21124B124819704D
:2007C000124B9A6802409A609A68D20AD2020A439A608022996812020A439A6008221968DC
:2007E0000A431A60102219680A431A60802219680A431A60202219680A431A600022044BD3
:200800001A60704756000020FF7FFFFF00540040580000200122064810B5036893430360CF
:2008200003F0D0F800F068FAFFF7C6FF10BDC04600540040474B0821986910B504001A00EA
:200840000C40084216D0FF249A694348520C00785200224090423CD10020404A10609A69E5
:20086000D2032DD5DA6911430222D96119680A431A6010BD0420996901422ED110219C69F9
:200880000C4245D1996989074CD42021986908424ED19A69D207ECD58022D96952000A4377
:2008A000DA618022D969D2000A43DA612B4B1A6801321A601B68142BDBD9FFF7ABFFD8E745
:2008C000DA691143D9610121254A117019680422CDE7DA691143D961CBE72149214A087802
:2008E000002807D00C705B6ADBB213701378AA2B08D1FEE71178586A1B4B5854137801336E
:20090000DBB2137013787B2BB3D97B231370B0E7DA691143D96102211A688A431A601A6813
:200920008243A5E70F4A10481178415C9962E5E7DB6919430123D1619169194200D19361B8
:20094000022113688B431360136849188B4313608FE7C0460054004056000020580000209D
:200960005C000020570000205D01002070B504000D00002807D000F015FE65602060002861
:2009800001D10123236070BD10B5041E10D00020236883420CD000F005FE2268831A8242C0
:2009A00001D9D3431B180020626893424041C0B210BD10B5041E0AD04368002B02D000F03C
:2009C000F1FD20602368002B01D10133236010BD1FB50C22002101A803F083F82E4C2F4B6F
:2009E0002F4A23608023226108221B06636000236261073AA118CB7721002C31E2610A706A
:200A000080225201226306226263220020003C322383A360E360A3766362A3621370E36426
:200A200000F0CAFD002801D000F08EFA1D4B20000193012301A9029300F0F4FF002801D033
:200A400000F082FA184B200001A9019300F0EAFF002801D000F078FA144B200001A9019378
:200A600000F0E0FF002801D000F06EFA104B200001A9019300F0D6FF002801D000F064FA91
:200A80000C4B200001A9019300F0CCFF002801D000F05AFA1FBDC046DC0100200024014065
:200AA00004000080200000140000014000000244001000B0002000B470B5050088B01422CB
:200AC000002103A803F00DF8214B2A689A423DD18020204B4003196C00260143196401218E
:200AE0001A6C02400192019A5A6BA0200A435A635B6BC0050B400293029B174B03A90393C5
:200B000003230596049301F06FFB144C144B20002360052363607B33236180336361802389
:200B2000DB00A660E660A361E661266201F060FAB04201D000F008FA0C20002203212C65B8
:200B4000A56201F0CBF90C2001F0F2F908B070BD0024014000100240203000004002002083
:200B600008000240084B10B59A6000221860074819711A7301F060F9002803D0044A1378FB
:200B80000133137010BDC04660000020DC0100207000002010B5054C2168002905D0227986
:200BA000034801F0B9F82379237310BD60000020DC010020054B10B59A68002A04D0197B23
:200BC0001B79994200D1904710BDC0466000002007B50120084A916B01439163936B032126
:200BE0000340002201930830019B01F077F9092001F09EF907BDC04600100240F0B589B01C
:200C00001422002103A802F06CFF022001258024A0262F4B2F4F596B2402014359635A6B1C
:200C2000F60502400092009A596B0018014359635A6B210002400192019A5A6B38002A43AF
:200C40005A635B6B2A002B400293029B01F076FB30000022204901F071FB2A0029001F4816
:200C600001F06CFB80212A003000090101F066FB112303940024380003A904930594069428
:200C800001F0B2FA300003A903950494059401F0ABFA114A300003A90392049505940694E4
:200CA00001F0A2FA039503A910350C4804950594069401F099FA802330001B0103A9039349
:200CC00004950594069401F08FFA09B0F0BDC0460010024000080050024000000004005022
:200CE000020010B5002800D001228021A020C901C00501F023FB10BDF0B5022691B02F4DBC
:200D00001C22002109A802F0ECFE6B6B012733436B636B6B002433400293029B802303A9B7
:200D2000039327487A3B0893049605940697079702F0F8FD402303A9039321483A3B0893EB
:200D4000049605940697079702F0ECFD8021EA6B89030A43EA63EB6B1A4A0B40C5210193AF
:200D60008900019B53581B021B0A535080231B04136009940B940C940D940E940F94124C69
:200D8000124B200009A90A9302F044FE802362689B0413436360E3680D4A1340E360E368AB
:200DA0000C4A1340E36023680B4A1340236023680A4A1340236011B0F0BDC0460010024016
:200DC0000004005000E100E000540040BC7D701001F8FFFFFF7FFFFFFFFFF7FFFFFFFDFF50
:200DE0000748084B10B5036000234360064BC360836001F0A9FA002801D000F0A5F810BD25
:200E00009C02002000300040FF0F000010B5024801F0C6FA10BDC0469C02002010B598B038
:200E2000342200210BA802F05CFE1022002101A802F057FE1822002105A802F052FE80200F
:200E4000800001F0B5FA0A230B93F6330E9300230F9314930833159380239B024022169343
:200E60008023022410929B053F3A0BA8119212941394179301F0C8FA002801D072B6FEE7E8
:200E8000072303900490210001A80193029401F01BFD002801D072B6FEE7064B079009907D
:200EA00005A8059301F0D2FD002801D072B6FEE718B010BD2040000010B50C4C2000FFF7FF
:200EC00063FD002809D06368962B09D120000849FFF74CFD0020FFF703FFFFF797FF10BD2A
:200EE00020009621FFF742FD0120F4E7140000205203000010B500F035FBFFF78FFFFFF702
:200F00007DFEFFF765FEFFF763FDFFF7F5FE00F023F900F085FAFFF763FF00F07FF900F093
:200F200059F800F0B3F900F01FFAFFF7D7FBFFF743FCFFF76FFAFFF757FBFFF7BDFFFFF76F
:200F400079FAFFF755FBF8E772B6FEE701200A4B82B0196C0143196480211A6C4905024047
:200F60000092009ADA6B0A43DA63DB6B0B400193019B02B07047C04600100240FEE7FEE72A
:200F80007047704710B500F001FB10BD10B5024801F0D6F810BDC0464002002010B5024853
:200FA00000F094FC10BDC046DC01002010B5024801F040FF10BDC0469403002010B5FFF75D
:200FC00039FC10BD8022024B12059A607047C04600ED00E00A480B4B10B5036003234360EC
:200FE0000023094A8360036143618033C260836102F014F8002801D0FFF7A6FF10BDC04672
:201000009403002000440140FFF900001FB503681F4A93420AD102201E4AD16B0143D16306
:20102000D36B03400093009B05B000BD1A4A93420AD18020174A0002116C01431164136CC3
:2010400003400193019BEFE7144A934212D18020104A8002116C01431164136C0321034099
:20106000029300221520029B00F038FF152000F05FFFD9E70A4A9342D6D18020054AC002FC
:20108000116C01431164136C03400393039BCBE700040040001002400020004000440140F7
:2010A0000048014010B5040088B01422002103A802F017FD2368234A934217D10123224A59
:2010C000516B19435163526B1A400092009AC0220392BE3A0492002205920692A020079351
:2010E00003A9C00501F080F808B010BD174A934211D10120144A516B01435163536B034045
:201100000193019B102303930E3B04930023059306930433E2E70E4A9342E5D102230A4A46
:201120000C48516B19435163526B03A91A400292029A8022920003920022049305920692EB
:201140000793CFE7000400400010024000200040004801400004005010B58EB01022002116
:2011600003A802F0BEFC0C220021684602F0B9FC1C22002107A802F0B4FC264C264BFA22C5
:201180002360002392006360A360236120008033E260A36101F042FF002801D0FFF7D4FEC1
:2011A000802320005B0103A9039302F057F8002801D0FFF7C9FE200001F05AFF002801D074
:2011C000FFF7C2FE0023694620000093029302F041F9002801D0FFF7B7FE002260232000AA
:2011E00007A90793089209920B9201F0A7FF002801D0FFF7A9FE0422200007A901F09EFF22
:20120000002801D0FFF7A0FE2000FFF74BFF0EB010BDC046F80200200004004010B588B0F5
:201220001C22002101A802F05CFC164C164BFA2223600023920020006360A360E260236199
:20124000A36101F0EBFE002801D0FFF77DFE200001F00EFF002801D0FFF776FE0022602320
:20126000200001A9019302920392059201F066FF002801D0FFF768FE2000FFF713FF08B0C5
:2012800010BDC046480300200020004030B595B01C220021684602F024FC3422002107A841
:2012A00002F01FFC214D224BFA222B600023920028006B60AB60EA602B616B61AB6101F04D
:2012C000ADFE002801D0FFF73FFE280001F0D0FE002801D0FFF738FE0024602322006946B3
:2012E0002800009301940294039404940594069401F024FFA04201D0FFF726FE80232800FA
:201300009B0107A90794089409940A940B940C930D94139402F0CEF8002801D0FFF714FED0
:201320002800FFF7BFFE15B030BDC046AC0200200048014010B5034B1860034801F048FDB7
:2013400010BDC0464403002094030020044B10B5834204D1034B1B68002B00D0984710BD76
:20136000940300204403002010B5094C0021200002F06CF80421200002F068F80021054899
:2013800002F064F80021044802F060F810BDC046F802002048030020AC020020FA21054BB7
:2013A00089001A68031C884201D3034B1B889BB293637047F8020020703B0008FA21054B42
:2013C00089001A68031C884201D3034B1B889BB253637047F8020020703B0008002210B5E6
:2013E000904202DA404200B20132FA21094B89001C68031C884201DB074B1B8807491BB285
:201400000968002A02D162634B6310BD63630023FAE7C04648030020703B0008AC02002062
:201420000C480D4B10B50360E1235B020C224360002342618360C36003618361C361036209
:201440004362836202F03AFA002801D0FFF77CFD10BDC046E00300200044004010B5040051
:2014600088B01422002103A802F03BFB124B22689A421ED18020114B8002D96B0143D96316
:20148000DA6B02400192019A0122596BA020114359635B6B03A913400293029B0C23039324
:2014A0000A3B04930023C00505930693079200F09BFE08B010BDC0460044004000100240B4
:2014C0000D488546FFF77EFD0C480D490D4A002302E0D458C4500433C4188C42F9D30A4A34
:2014E0000A4C002301E013600432A242FBD302F0CBFAFFF7FFFCFEE700200020000000204A
:2015000028000020983B00082800002074040020FEE7000070B5104B05001978002901D1D2
:20152000012070BDFA208000FEF7F4FD0B4B01001868FEF7EFFD00F007FD041EF0D1032D1E
:20154000EED8020001202900404200F0C7FC044B20001D60E5E7C046200000201C0000200A
:20156000240000208023084A5B00116810B50B4300201360FFF7CEFF041E03D1FFF7E6FC27
:20158000200010BD0124FBE700200240034A044B11681B785B1813607047C0467004002016
:2015A00020000020014B18687047C0467004002080684007C00F70470023F0B587B0059382
:2015C0000133041E019300D1BEE0856D002D05D1FFF772FA23005433E5651D7080232668A9
:2015E0005B05B2681A4200D1B1E00022B3680192DB0008D410230125A26D01951343A365D0
:20160000E36D2B43E3653000FFF7D2FF1023A26D1A40104300D0E8E0A36D774A01001A401A
:2016200002231343A36523689A68D2072ED4DA6818318A43A168656C0A43216CDA6029430D
:20164000A56C62682943E56C960FB6072943314326003C363678012E00D131431E69674FB9
:201660003E4080270E431E6156007608FF05BE420CD080263606B24208D0614E614F356817
:201680002F40F025AD032A403A433260267E627EB603D2031643A27E94465703226B002A27
:2016A00001D080225201E5682E4325693E4303960295002D5FDA6F007F0826002C363678D5
:2016C000039D76002E433243661CF67F3A43012E05D16546002D51D1802676023243666A38
:2016E000002E05D0E027A56A7F003E402E433243DE68454F656B3E401643DE601E69434F16
:201700003E4031430726702719615969B143294359615E69A16BBE43090131435961029916
:20172000002933D1986A103901439962DB6838490B4093424CD100230322E365A36D93437B
:201740001A0001231343A365019807B0F0BDB26830490A401343B3602F4B30491868FEF742
:20176000D9FC40000590059B002B00D13DE7059B013B0593F7E78027BF039EE72027A56D66
:201780002F43A765E76D3E43E665A8E78021029D89038D42CAD10F27266E35008100CD4059
:2017A000290039400F290DD001300828F5D11C20996AE1690139890001402C388840010091
:2017C0003143B2E70128F2D11021986A4942ABE71222A36D012593431A0010231343A365D5
:2017E000E36D01952B43E365AEE7A26D1343A36501230193A8E7C046FDFEFFFF02FCFF1FE9
:2018000008270140FFFFC3FF1902FEFF02FCFFDFE7FF3F83E8FFFF6F1C000020400D03001B
:20182000704710B5806AFFF7FBFF10BD704770474023806A10B5826D134383650423C26D82
:201840001343C365FFF7F3FF10BD0000502310B5846AA26D1A422CD1A26DB133FF3313434C
:20186000A365C02320681B01C2681A4214D1A37E002B11D103681B070ED5FFF799FE00281B
:201880000ED10C21226853688B435360A36D0E4A1A4001231343A3652000FFF78BF910BDCB
:2018A0002023A26D1343A3650123E26D1343E365F2E7A36DDB0603D52000FFF7B8FFEEE723
:2018C000236D5B6B9847EAE7FEFEFFFFF8B5036804001E685D6802231E420FD01D420DD001
:2018E000836DDB0604D48023826D1B0113438365200000F0F1FA022223681A6004231E42A8
:2019000001D01D4204D108231E422AD01D4228D0A36DDB0604D48023A26D9B001343A36572
:20192000C02320681B01C2681A4214D1A37E002B11D103681B070ED5FFF73AFE002866D18A
:201940000C21226853688B435360A36D344A1A4001231343A3652000FFF72CF90C22236836
:201960001A6080273E420BD03D4209D08023A26D5B021343A3652000FFF758FF23681F60AF
:2019800080277F003E420BD03D4209D08023A26D9B021343A365200000F09CFA23681F6011
:2019A0008027BF003E420BD03D4209D08023A26DDB021343A365200000F08DFA23681F6080
:2019C00010231E4217D01D4215D0236B002B03D02368DB689B070BD08023A26DDB0013438F
:2019E000A3650223E26D20001343E365FFF71FFF102223681A608027BF013E4206D03D4226
:201A000004D0200000F069FA23681F60F8BD2023A26D1343A3650123E26D1343E3659AE77E
:201A2000FEFEFFFF0023F0B587B00593030054331A7805000E000220012A00D1C2E0012401
:201A40001C702868FFF7B4FD002800D0F8E08022736812060193042394462F69019A9F43B4
:201A60003368022A00D1C1E05903490B2A68029167450FD1906A01439162B16854691802AB
:201A8000724E01403140844321435161002B64DB002094E01F21019F0F40BC460F276146EB
:201AA0008F40F9430391296EB9430F000299002914D1980E1F3108406146884001990743AB
:201AC0008908E86901312F668142D6D864469900090FA140906A039C2040CCE72342EBD1E3
:201AE000022120000B42E7D1080049180B42E3D101301907E0D40130D906DDD4013099069E
:201B0000DAD401305906D7D401301906D4D40130D905D1D401309905CED401305905CBD491
:201B200001301905C8D40130D904C5D401309904C2D401305904BFD401301904BCD401307F
:201B4000D903B9D401309903B6D480211800C90208400B42B0D01220AEE7E0243C4A3D4856
:201B6000116864040C40834219D180231B0419428ED111683848014021431943374B116020
:201B800018683749FEF7C6FA0C23434301330593059B002B00D17BE7059B013BF7E73148DE
:201BA000834211D18026080076043040314200D06EE71168284B194021430E4316600023BB
:201BC00054352B7007B0F0BD2748834200D05FE780230800DB031840194200D058E711686F
:201BE0001D4E314021430B431360E8E7674505D128685903826A490B8A438262002B00DBB0
:201C000046E7134A13481168834208D1A02310685B041940104B03401943116038E71148F2
:201C2000834203D1C02310681B04F2E70E48834200D02DE7C0204004014013680648EAE7BA
:201C40002023AA6D20001343AB65B8E700FFFF0708270140001000B0FFFF3FFE1C00002059
:201C6000400D0300004000B8002000B40023F7B504000193036801209A68024201D000201E
:201C8000FEBD99681F4A114207D01023A26D1343A365E36D0343E365F2E79A681A4D2A40CB
:201CA00010439860194B1B681B021DD4637E012BE5D0FFF777FC0126070022681368334211
:201CC000DDD19368334203D193682B4033439360FFF768FCC01B0228EFD91023A26D0120B9
:201CE0001343A365E36DD5E7094B0A491868FEF711FA01300190019B002BD7D0019B013B4B
:201D00000193F8E717000080E8FFFF7F082701401C000020400D0300F8B5040000680D0032
:201D20001600FFF745FC0223002840D1270054373A78012A3BD001223A702368D968114272
:201D40000CD19968114205D09A681A49114002220A439A600122D9680A43DA602000FFF75B
:201D600085FF031E23D1A26D13491140802252000A43A265E065114A206D2168C262104A92
:201D80000263104A42631C220A603B704A68103313434B602A003300403100F087F9030055
:201DA000206804498268114004220A4382601800F8BDC046E8FFFF7FFEF0FFFF4D1800082D
:201DC0002318000831180008036870B50400012099689A68024201D1002070BD02221142DD
:201DE000FAD105219D680D40012D1BD19968114801400A439A6003221A60FFF7D3FB06003B
:201E000023689B682B42E7D0FFF7CCFB801B0228F6D91023A26D01201343A365E36D1D434E
:201E2000E565DAE71023A26D1343A365E36D0343E365D2E7E8FFFF7F73B500230500019317
:201E400054352B7804000220012B2DD0012620002E70FFF7B9FF23689A68324232D1A26D61
:201E60001A490236114002220A43A265D968DA683140B243DA6080229E6812063243144E44
:201E80009A609A68002A10DA019A01320192019AB242F6D91222A36D012093431A001023EB
:201EA0001343A36500232B7076BDDA680A43DA600322A36D93431A0001231343A365002340
:201EC0002B70F1E71023A26DF7E7C046FDFEFFFFFFF10200704770477047704730B5FF2599
:201EE00003242A000440E400A24089012940D243A140C3B200280ADBC0240B4B80088000DA
:201F0000C018A40003591A401143015130BD0F200340083B05489B089B001B18D869024006
:201F20001143D961F2E7C04600E100E000ED00E0002805DB1F2318401E3B8340014A13602A
:201F40007047C04600E100E08022431E5204012093420DD2C021074A07485360036A090625
:201F60001B021B0A0B43036200200723906013607047C04610E000E000ED00E0F0B5846CD0
:201F8000C56C6560046D002C02D0446D856D65601C25046C084E25400124AC4077683C4399
:201FA0007460046863608368102B02D1A260E160F0BDA160E260FBE70000024010B5040005
:201FC000036C094A9B089B189B00436403681421D8B20838FEF79EF8044BA3641F231840C2
:201FE0001E3B8340E36410BD008200108008024070B504000120002C49D02568274B142192
:020000040800F2
:20200000E818FEF787F802238000A61D2064F3772B68234AE16813402B60A3682A680B43E4
:20202000216920000B4361690B43A1690B43E1690B43216A0B4313432B60FFF7BFFF80238F
:20204000A268DB019A4201D1002363603F236268616C13400B60E06CA16C013A4860032AE6
:2020600016D8104A104899180322013B1340023A9A40A265130000228900216560650A60CB
:20208000436000200123E0630534F377E07770BD002323656365A365F3E7C046F8FFFDBFE1
:2020A0000F80FFFF3F82001040090240F7B5451D0193EE7F04000220012E34D00138E87737
:2020C000A71DFE7FB4466346F6B200960026834231D10130F8772568E6632868009B984375
:2020E0002860019B2000FFF749FF226B2368B2421AD00E2219680A431A60626C1168C903DD
:2021000004D580211068490001431160226D002A04D08021106849000143116001220020E8
:2021200019680A431A60FEBD04211A688A431A6019680A22DFE78023E363EE77F3E7000013
:20214000F8B51C210427046C264B21403C008C401E680268156826420FD03D420DD0116897
:20216000890602D41168B94311605A6814435C60036B002B1BD0984719E002273C008C40B2
:20218000264215D03D4213D01168890606D40A251168A94311600121821DD1775A68144387
:2021A00000225C60431DDA77C36A9342E3D1F8BD082427008F403E42F9D02542F7D00E2559
:2021C0001468AC431460012215008D4029005C6821435960831DC263DA770022431DDA7728
:2021E000436BE2E7000002400023F0B585B00A681400DC4001D105B0F0BD012415009C403D
:2022000025400295224200D18AE010254A685E000192AA430D3DB5409446013AED43012AAF
:202220000FD8CA688768B2402F403A43012782604268A2431400019A12093A409A4022439C
:2022400042608A68C468B2402C402243C2606246022A0FD1DA08072492008218176A0392D6
:202260000F221C40A400A24097430A69A2401743039A1762032402681540019A2240B240D7
:2022800080241543019A64050560224248D003250F271D40ED00AF40224A9C08A400A41856
:2022A000266E0022BE43A027FF05B8420CD01E4F0132B84208D01D4F0132B84204D01C4F7C
:2022C0000132B84200D00232AA4032432266194A029CD66F029D019FE4433543FF0301D4EB
:2022E00035002540D567144D029EEA6F019F1643BF0301D4224016000A4AEE671668029DE0
:20230000019F3543FF0201D43500254015605568029E019F2E43BF0201D425402E00566073
:20232000013364E7001802400004005000080050000C00500418024008180240002A01D001
:20234000816170478162FCE770B504000120002C14D023680F4A1A600F4A1A6062685A600F
:20236000A2689A60FFF71EF905002368D868002805D11969E268914208D01A6170BDFFF769
:2023800011F9401B3028F0D90320F7E7034A1A60F4E7C046CCCC000055550000AAAA000078
:2023A0000368024A00201A607047C046AAAA000010B5114C1149236802000B40034323609E
:2023C000802300209B009A420ED10D4B0D49186806235843FDF79EFE8022431CD2006169C5
:2023E00008001040114200D110BD002B01D0013BF5E70320F8E7C04600700040FFF9FFFFD2
:202400001C00002040420F00F0B5040085B0002823D00368DB0710D423689B075ED42368DB
:202420001B0700D5C3E023685B0700D5F5E0E269002A00D07CE1002029E03822B04DAB6836
:202440001340EA68102B0AD1D243930709D12B689B03E1D56368002BDED1012017E0082B61
:20246000F5D0802263685202934212D12A6813432B60FFF797F880270600BF022B683B42A8
:20248000CAD1FFF78FF8801B6428F7D9032005B0F0BDA021C9028B4208D180232968DB0265
:2024A0000B432B602B681A432A60E2E72A6895490A402A602A6894490A402A60002BD8D1A5
:2024C000FFF770F880270600BF022B683B42A3D0FFF768F8801B6428F7D9D7E73823884D72
:2024E000AA681340EA68102B28D103210A40022A26D12A68520502D5E268002AADD06968DE
:2025000062698248120201400A436A60002B0DD12B687F4A1340226913432B602B687D4A3C
:202520009B045B0FDA4013007B4A13607B4B1868FEF7F0FF002800D171E78EE7002BD8D06A
:20254000E368002B20D02B68714A802713402269FF0013432B6080232A685B0013432B60F1
:20256000FFF720F806002B683B4207D06A68636966491B020A4013436B6050E7FFF712F854
:20258000801B0228EFD981E72B68654A802713402B60FFF707F80600FF002B683B4200D1A4
:2025A0003DE7FEF7FFFF801B0228F6D96EE73821534B9A681D000A40182A08D11B6E9B0775
:2025C00000D430E7A369002B00D02CE745E7A2690123002A10D02A6E022713432B66FEF7F4
:2025E000E1FF06002B6E3B4200D01CE7FEF7DAFF801B0228F6D949E72A6E02279A432A664C
:20260000FEF7D0FF06002B6E3B4200D10BE7FEF7C9FF801B0228F6D938E73821384B9A68C9
:202620001D000A40202A08D1DB6D9B0700D4FEE6A368002B00D0FAE60FE780220021DB6B89
:2026400052050091134208D1EB6B1343EB63EB6B13400393039B012300938027314E7F0031
:2026600033683B4215D0A368012B22D1EA6D1343EB65FEF797FF02270600EB6D3B4238D09F
:20268000009B012B00D0D2E6EB6B274A1340EB63CDE633683B433360FEF784FF0190336880
:2026A0003B42E0D1FEF77EFF019BC01A0228F6D9ECE6EA6D052B05D1013B1343EB65EA6DA3
:2026C0000123D4E701218A43EA65EA6D03318A43EA65002BCDD1FEF765FF02270600EB6D8D
:2026E0003B42CDD0FEF75EFF104B801B9842F6D9CCE6FEF757FF0D4B801B9842BDD9C5E6C4
:2027000000100240FFFFFEFFFFFFFBFFFF80FFFFFFC7FFFF0024F4001C000020240000209B
:20272000FFFEFFFF00700040FFFFFFEF8813000038203F4B99681D000140102952D01B6848
:202740003C490B402B60022A35D1FEF72BFF80270600BF042B683B4227D1616A236AEA68AB
:202760000B43354980260A401343E26AB6041343226B1343A26A12021343EB6080232A6812
:202780005B0413432B608023EA685B051343EB60FEF708FF04002B68334200D04BE6FEF705
:2027A00001FF001B0228F6D970E6FEF7FBFE801B0228CFD96AE60322EB6880269343EB60C5
:2027C000EB681E4AB6041340EB60FEF7EBFE04002B68334200D12EE6FEF7E4FE001B0228FB
:2027E000F6D953E6012A00D137E60322DB68216A1A408A4200D030E67022616A1A408A4236
:2028000000D02AE6FE21A26AC90119401202914200D022E6F822E16A92031A408A4200D0DB
:202820001BE6226B5B0F5B07934200D103E614E600100240FFFFFFFE8C80C11FFFFFFEEF91
:2028400038231E4A70B591681400194205D113681B489B045B0FD84070BD916819400829A3
:2028600027D091681940102917D1D368D168DB437F22E5684906490F2D0A013115409B0767
:2028800009D11048FDF746FCE1686843490F0131FDF740FCE0E70A48F4E791681940202993
:2028A00009D0926800201340182BD5D1FA20C001D2E70448D0E780200002CDE700100240AA
:2028C0000024F40000127A00F7B505000E00002801D10120FEBD07274A4C23683B408B4228
:2028E0002AD329688B073BD4CB0748D4072723683B40B3420AD92368BB4333432360FEF738
:2029000051FE019023683B40B3426BD12B683E4C5B076FD4FFF794FFA3683C4A1B051B0F7A
:202920009B009B581F221340D840394B1860394B1868FEF7EFFDCDE72368BB430B4323606E
:20294000FEF730FE019023683B40B342C9D0FEF729FE019BC01A304B9842F4D90320B9E7B8
:20296000294A4B0704D5E0239068DB010343936093682A480340A86803439360B4E76A6843
:20298000214F012A19D13B689B03A2D50721BB688B431343BB60FEF705FE01903823BA686A
:2029A0001A406B68DB009A42A0D0FEF7FBFD019BC01A194B9842F1D9D0E7022A03D13B68FE
:2029C0009B01E3D485E7002A03D13B685B05DDD47FE70223032A03D1396E1942D6D178E7F2
:2029E000F96DFAE7FEF7DEFD019BC01A0A4B984288D9B3E7A3680A4A1340EA681343A360C3
:202A000088E7C0460020024000100240103B00081C0000202400002088130000FFF0FFFF32
:202A2000FF8FFFFF064B074A9B685B045B0F9B009B581F221340044A1068D8407047C046DF
:202A400000100240503B00081C000020F0B505002B68002085B09B033BD58022484C520588
:202A6000E36B0090134208D1E36B1343E363E36B13400393039B012300938027414E7F001F
:202A800033683B433360FEF78DFD019033683B4211D0E26DC02311009B003B4E19401A4265
:202AA00002D06B6999424DD1E36D00201E406B691E43E66506E0FEF775FD019BC01A02283C
:202AC000E4D90320009B012B03D1E36B2F4A1340E3632A68D30706D5032429494B6DA3439D
:202AE0006C6823434B65930606D52549284C4B6D2340AC6823434B6553040FD520492C6918
:202B00004B6D9B009B0823434B658023DB059C4204D18023CC685B022343CB6013050FD5B2
:202B2000174A1C4C536DE96823400B4353658023DB01994204D18023D1685B020B43D36069
:202B400005B0F0BD8023E26DE06D11005B020343E365E36D104831400340E365E165D30714
:202B6000A2D5FEF71FFD07000222E36D13429BD1FEF718FD094BC01B9842F5D9A1E7C04622
:202B80000010024000700040FFFCFFFFFFFFFFEFFFCFFFFFFF3FFFFFFFFFFEFF88130000B0
:202BA0000122036A70B593430362036A164A4468856915400A681543022293438A6813435D
:202BC000124A904205D0124EB04202D0114EB04213D10826B343CE6833430426B3439042D7
:202BE00005D00B4A904202D00A4A904205D10A4A8E6922404C69344314434A68446085619F
:202C00004263036270BDC0468CFFFEFF002C01400044014000480140FFFCFFFF036A174AAD
:202C200070B513400362036A154D4268C4692C400D682C43134D2B408D682D022B43124D05
:202C4000A8420ED1114D1D40CB681B022B43104D2B40104D4E6915408A69324312012A4319
:202C600005E00D4DA842F4D00C4DA842F1D042604A68C461C263036270BDC046FFFEFFFF32
:202C80008CFFFEFFFFFDFFFF002C0140FFF7FFFFFFFBFFFFFFCFFFFF00440140004801407F
:202CA000036A124A30B513400362026A104C4368C56925400C68240225430E4C22408C68F6
:202CC000240322430C4CA04205D00C4CA04202D00B4CA04204D10B4C23404C69A4012343C5
:202CE00043604B68C5610364026230BDFFEFFFFFFF8CFFFEFFDFFFFF002C0140004401405E
:202D000000480140FFBFFFFF036A114A70B513400362046A0F4E4368456D35400E6835433E
:202D20000D4E34408E68360434430C4EB04205D00B4EB04202D00B4EB04203D113404A69BA
:202D40001202134343604B6845658365046270BDFFFFFEFF8FFFFEFFFFFFFDFF002C0140A1
:202D60000044014000480140036A124A30B513400362026A104C4368456D25400C682402BB
:202D800025430E4C22408C68240522430C4CA04205D00C4CA04202D00B4CA04204D10B4C0D
:202DA00023404C69A402234343604B684565C365026230BDFFFFEFFFFF8FFFFEFFFFDFFF23
:202DC000002C01400044014000480140FFFFFBFF0200030001203D321178814218D1022193
:202DE00011701B68DA680243DA600C4A934202D00B4A93420DD19A680A4900200A40062A1A
:202E000006D007398A4203D0012219680A431A6070471A68104318600020F9E7002C014021
:202E200000040040070001007047704770477047704700000222036810B519690400114286
:202E40000ED0D96811420BD0053A1A61043202779B699B0700D186E0FFF7E8FF0023237745
:202E6000042223681969114211D0D96811420ED0093A1A61073222779A69C0239B00200048
:202E80001A4200D175E0FFF7D1FF0023237708222368196911420ED0D96811420BD0113A0B
:202EA0001A610D322277DB6920009B0767D0FFF7BDFF00232377102223681969114210D0A1
:202EC000D96811420DD0213A1A6119322277DA69C0239B0020001A4257D0FFF7A7FF0023A4
:202EE0002377012223681969114207D0D968114204D0033A20001A61FEF728FA802223685A
:202F00001969114208D0D968114205D0023AFF3A20001A6100F02DFB23681A69D20507D5B2
:202F2000DA68120604D51C4A20001A6100F022FB402223681969114207D0D968114204D04F
:202F4000813A20001A61FFF773FF202223681969114207D0D968114204D0413A20001A61BC
:202F600000F006FB10BDFFF760FF2000FFF75FFF74E7FFF75AFF2000FFF759FF85E7FFF750
:202F800054FF2000FFF753FF93E7FFF74EFF2000FFF74DFFA3E7C046FFFEFFFF194A10B5A4
:202FA0000368904202D0184CA04208D17024A3434C68234390420BD0134CA04208D0134C2A
:202FC000A04205D0124CA04202D0124CA04203D1114C2340CC6823438024A3434C69234315
:202FE00003608B68C3620B688362904205D0084B984202D0074B984201D10B69036301235C
:20300000436110BD002C014000040040002000400044014000480140FFFCFFFF70B50400FE
:203020000120002C23D025003D352B78DAB2002B05D123003C3320001A70FDF7E7FF02234E
:203040002B702068211DFFF7A9FF2200012300204832137047340A3A137053709370D370C3
:20306000137153719371D371137223702B7070BD70B504000120002C23D025003D352B783D
:20308000DAB2002B05D123003C3320001A70FFF7CBFE02232B702068211DFFF77FFF22008C
:2030A000012300204832137047340A3A137053709370D370137153719371D37113722370DC
:2030C0002B7070BD1022036A70B593430362026A154D436884692C400D682D022C432025FF
:2030E000AA438D682D012A43104DA8420FD18025AA431500CA6812012A434025AA430C4D28
:203100004E691D408B6933439B002B4305E0094DA842F4D0084DA842F1D043604B68846104
:203120008363026270BDC046FF8CFFFE002C0140FFF3FFFF0044014000480140F8B507006B
:203140003C373B7804000D0016000220012B0CD001233B700C2A50D008D8042A2CD0082A97
:203160003BD0002A17D000203870F8BD102A55D0142AF8D12068FFF7F7FD8022236812019E
:20318000596D0A435A655A6D2D490A405A652A69596D120250E02068FFF702FD0822236848
:2031A00099690A4304219A619A698A439A619A6929690A439A61D6E72068FFF783FF802299
:2031C0002368120199690A439A619A691C490A409A612A6999691202EBE72068FFF71EFD46
:2031E00004212368DA691643DE61DA698A43DA61DA6929690A43DA61B5E72068FFF750FD35
:20320000802223681201D9690A43DA61DA690C490A40DA612A69D9691202EBE72068FFF74E
:2032200073FD08222368596D0A4304215A655A6D8A435A655A6D29690A435A6593E7C0463A
:20324000FFFBFFFF30B58468034D0A431B022C4013432343836030BDFF00FFFFF8B5050044
:2032600002233C352A7804001800012A23D0260001273D362F70337020683F4A836813408A
:2032800083600B68602B4BD02FD8402B5FD013D8202B04D009D810221900914307D18268C5
:2032A00036490A40134307221CE0302BF7D00123002033702870F8BD502BF8D14A68CB684B
:2032C000016A046A1B01BC43F02704628469BC4323430A24A1430A43836102628368274A28
:2032E0001A40572313438360E1E7702B0DD0802292019342DBD1CB684A688968FFF7A2FF5E
:2033000080232268DB01916807E0CB684A688968FFF798FF7723226891680B439360C6E756
:2033200010244B68CA68016A154FA1430162846912033C402243A024016A1B01A1430B43FE
:203340008261036283680D4A1A406723CAE74A68CB68016A046A1B01BC43F027046284690B
:20336000BC4323430A24A1430A43836102628368024A1A404723B5E78800CEFF8FFFCFFFF9
:20338000FF0FFFFF1F2310B5012419408C408A40036AA3430362036A1A43026210BD000053
:2033A00010B503000400002905D13E3301201A78824212D010BD042901D13F33F6E708292C
:2033C00001D14033F2E70C2901D14133EEE7102901D14233EAE74333E8E702221A702068B3
:2033E0000122FFF7CFFF236813498B4216D0134A934213D0124A934210D0124A934215D10F
:203400009A68114900200A40062AD3D007398A42D0D0012219680A431A60CBE78022586CE4
:20342000120202435A648B42E7D1E9E70122196800200A431A60BDE7002C014000440140FF
:2034400000480140000400400700010010B5FFF7A7FF10BDF0B5040002223C34257803008C
:203460001000012D1FD01D003D352A701A680E4E53689068B24203D10C4F3B404F683B4392
:203480007027BB430F683B435360B24202D0084B9A4204D1802398438B6818439060012345
:2034A00000202B702070F0BD002C0140FFFF0FFF0004004010B504003C342378020002205F
:2034C000012B39D0C8681D4B12680340886803431B480340486803431A4803400868034335
:2034E0001948034008690343184803404869034317480340086B03431648034088690004E6
:2035000003431548824214D114480340C8690343134818408B6A1B05034312480340086A2C
:20352000034311480340486AC96A03430F4803400B4300205364207010BDC046FFFCFFFF63
:20354000FFFBFFFFFFF7FFFFFFEFFFFFFFDFFFFFFFBFFFFFFFFFF0FF002C0140FFFFFFEFB5
:20356000FFFF0FFFFFFFFFFEFFFFFFFDFFFFFFDF704770477047000070B5040001698268CC
:20358000C3690A434169656E0A4301681A4308682A43494D284002430A604A684748256AC8
:2035A0000240E06802434A60A26988682A43444D284002430F208A60CA6A8243606A0243CB
:2035C000CA62404A914215D103213F4A526D0A408021013A0902022A60D83C48805C8B424E
:2035E00014D0082858D8FCF78BFD0C575557525757573B00364A91424ED18022120293426E
:203600004ED0FFF70FFA00284ED02BE0082843D8FCF776FD46420842054242420900FFF7EF
:203620000FF93FE02B4B626A2B495200515A1800FCF770FD656840006B082900C018FCF7C4
:2036400069FD264982B2103A03048A4224D80F221B03904380B222685B0F1843D06023E072
:2036600080200002636A1C4A5B00995AFCF752FD65686B08C0182900FCF74CFD80B2020034
:20368000164B103A9A4207D82368D8600CE0FFF7D7F8B8E70F48E5E7012006E08B42B0D139
:2036A000FFF7C0F9031EBED100200D4BA36600232367636770BDC046F369FFCFFFCFFFFF8A
:2036C000FFF4FF110038014000100240723B0008004400400024F400763B0008EFFF000024
:2036E00001000100836A30B5DA0706D50168284C4A682240C46A22434A609A0706D5016827
:20370000244C4A682240046B22434A605A0706D50168214C4A682240446B22434A601A07A2
:2037200006D501681D4C4A682240846B22434A60DA0606D501681A4C8A682240C46B224358
:203740008A609A0606D50168164C8A682240046C22438A605A0610D50168134D4A68446CB6
:203760002A4022434A6080225203944205D14A680E4C2240846C22434A601B0606D502685A
:203780000B4953680B40C16C0B43536030BDC046FFFFFDFFFFFFFEFFFFFFFBFFFF7FFFFF45
:2037A000FFEFFFFFFFDFFFFFFFFFEFFFFFFF9FFFFFFFF7FFF7B5802704000D0016000193B7
:2037C0003F012268D3692B405B1B59424B41B34201D000201FE0089B0133F3D0FDF7E2FE88
:2037E000019B089AC01A2368904201D8002A13D11A6816490A401A609A68A331FF318A43F5
:203800009A60220020230832D367803213600023032080342370FEBD04211A680A42D0D0D5
:20382000DA693A42CDD01F621A6808490A401A609A68A331FF318A439A60220020230832A8
:20384000D367803213605360E1E7C0465FFEFFFF030073B5002604008C331E60FDF7A2FE07
:20386000236805001B681B0719D423681B685B070AD58021104B0022009320002B00C9030F
:20388000FFF798FF002815D12200202300200832D36780321360E066803420700BE0802159
:2038A000054B32000093890303002000FFF782FF0028DAD0032076BDFFFFFF0170B5041E60
:2038C00001D1012070BD05000835EB6F002B04D1020080321370FDF7C1FD24230121226850
:2038E000EB67136820008B431360FFF745FE0128E7D0A36A002B02D02000FFF7F3FE2368E5
:2039000007495A6820000A402A215A609A688A439A60012219680A431A60FFF799FFD1E7AC
:20392000FFB7FFFFF7B5020000270C682000F84000D1FEBD01202300B8400340044233D0DE
:203940004868032484461800654658434443013DE443012D0BD88D68966845432640354312
:20396000CE6895605E4355689D43354355600D69D668454326403543D5606546022D0DD1AA
:203980004D690195FF2B11D803000F2543435D43166AAE43019D6B431E43166213681C40FE
:2039A00063465843044314600137BEE70F261B0A5B435B435E43556AB543019E73431D4388
:2039C0005562EBE70E4A030090420BD180220D4B9203D96A0A43DA62DA6A0B4900200A40F8
:2039E000DA627047094A01209342FAD18022054BD203D96A0A43DA62DA6A0549EEE7C046C0
:203A00000054004000100240FFFFDFFF00580040FFFFBFFF0122036830B593430360CB68B1
:203A20008D681B0204682B43144D2C40234303604B680D69036103681A4302608268104B08
:203A40001A40826084688A69E40AE4022A43224382601C00002D04D0802382681B021343A6
:203A600083600268074B1A400B681A43026043684A69234013434360002030BDFFE0FFFF77
:203A8000FF7FFFFFFFFFCFFF70B500260C4D0D4C641BA410A64209D1002600F02BF80A4D5C
:203AA0000A4C641BA410A64205D170BDB300EB5898470136EEE7B300EB5898470136F2E7CC
:203AC000903B0008903B0008903B0008943B0008002310B59A4200D110BDCC5CC4540133C0
:203AE000F8E703008218934200D1704719700133F9E70000F8B5C046F8BC08BC9E4670478A
:203B0000F8B5C046F8BC08BC9E4670470001040000000000000000000000000000000000DA
:203B200000000000000000000000000000000000010000000200000003000000040000007B
:203B4000060000000700000008000000090000000000000000000000000000000000000047
:203B600001000000020000000300000004000000E70304020800010002000400060008002E
:203B80000A000C00100020004000800000010000E1000008B900000801000000E803000088
:203BA000F00C0000010000001400000001000000010000000024F4000100000004000000D5
:00000001FF
